{
  "_format": "hh-sol-artifact-1",
  "contractName": "EventManagement",
  "sourceName": "contracts/events-manager/EventManagement.sol",
  "abi": [
    {
      "inputs": [],
      "stateMutability": "nonpayable",
      "type": "constructor"
    },
    {
      "inputs": [],
      "name": "addressZeroDetected",
      "type": "error"
    },
    {
      "inputs": [],
      "name": "eventClosed",
      "type": "error"
    },
    {
      "inputs": [],
      "name": "mustMintNFTToAttend",
      "type": "error"
    },
    {
      "inputs": [],
      "name": "notEventManager",
      "type": "error"
    },
    {
      "inputs": [],
      "name": "shouldBeMoreThanTen",
      "type": "error"
    },
    {
      "inputs": [],
      "name": "userHasRegisteredEvent",
      "type": "error"
    },
    {
      "anonymous": false,
      "inputs": [
        {
          "indexed": true,
          "internalType": "uint24",
          "name": "eventId",
          "type": "uint24"
        },
        {
          "indexed": true,
          "internalType": "string",
          "name": "eventName",
          "type": "string"
        },
        {
          "indexed": false,
          "internalType": "uint32",
          "name": "maxAttendies",
          "type": "uint32"
        },
        {
          "indexed": true,
          "internalType": "address",
          "name": "tokenAddress",
          "type": "address"
        },
        {
          "indexed": false,
          "internalType": "uint256",
          "name": "timestamp",
          "type": "uint256"
        }
      ],
      "name": "eventCreationSuccessful",
      "type": "event"
    },
    {
      "anonymous": false,
      "inputs": [
        {
          "indexed": true,
          "internalType": "uint256",
          "name": "eventId",
          "type": "uint256"
        },
        {
          "indexed": false,
          "internalType": "string",
          "name": "eventName",
          "type": "string"
        },
        {
          "indexed": true,
          "internalType": "uint256",
          "name": "time",
          "type": "uint256"
        },
        {
          "indexed": false,
          "internalType": "uint256",
          "name": "attendance",
          "type": "uint256"
        },
        {
          "indexed": true,
          "internalType": "uint256",
          "name": "maxAttendies",
          "type": "uint256"
        }
      ],
      "name": "eventDeleted",
      "type": "event"
    },
    {
      "anonymous": false,
      "inputs": [
        {
          "indexed": true,
          "internalType": "uint256",
          "name": "eventId",
          "type": "uint256"
        },
        {
          "indexed": false,
          "internalType": "string",
          "name": "eventName",
          "type": "string"
        },
        {
          "indexed": true,
          "internalType": "uint256",
          "name": "time",
          "type": "uint256"
        },
        {
          "indexed": false,
          "internalType": "uint256",
          "name": "attendance",
          "type": "uint256"
        },
        {
          "indexed": true,
          "internalType": "uint256",
          "name": "maxAttendies",
          "type": "uint256"
        }
      ],
      "name": "eventIsClosed",
      "type": "event"
    },
    {
      "anonymous": false,
      "inputs": [
        {
          "indexed": true,
          "internalType": "uint256",
          "name": "eventId",
          "type": "uint256"
        },
        {
          "indexed": true,
          "internalType": "string",
          "name": "eventName",
          "type": "string"
        },
        {
          "indexed": false,
          "internalType": "uint256",
          "name": "attendance",
          "type": "uint256"
        },
        {
          "indexed": true,
          "internalType": "uint256",
          "name": "maxAttendies",
          "type": "uint256"
        }
      ],
      "name": "registrationSuccessful",
      "type": "event"
    },
    {
      "inputs": [],
      "name": "canceled",
      "outputs": [
        {
          "internalType": "uint24",
          "name": "",
          "type": "uint24"
        }
      ],
      "stateMutability": "view",
      "type": "function"
    },
    {
      "inputs": [
        {
          "internalType": "uint24",
          "name": "eventId",
          "type": "uint24"
        }
      ],
      "name": "closeEvent",
      "outputs": [],
      "stateMutability": "nonpayable",
      "type": "function"
    },
    {
      "inputs": [],
      "name": "completed",
      "outputs": [
        {
          "internalType": "uint24",
          "name": "",
          "type": "uint24"
        }
      ],
      "stateMutability": "view",
      "type": "function"
    },
    {
      "inputs": [
        {
          "internalType": "string",
          "name": "_name",
          "type": "string"
        },
        {
          "internalType": "uint32",
          "name": "_maxAttendies",
          "type": "uint32"
        },
        {
          "internalType": "address",
          "name": "_token",
          "type": "address"
        }
      ],
      "name": "createEvent",
      "outputs": [],
      "stateMutability": "nonpayable",
      "type": "function"
    },
    {
      "inputs": [
        {
          "internalType": "uint24",
          "name": "eventId",
          "type": "uint24"
        }
      ],
      "name": "deleteEvent",
      "outputs": [],
      "stateMutability": "nonpayable",
      "type": "function"
    },
    {
      "inputs": [],
      "name": "eventCount",
      "outputs": [
        {
          "internalType": "uint24",
          "name": "",
          "type": "uint24"
        }
      ],
      "stateMutability": "view",
      "type": "function"
    },
    {
      "inputs": [
        {
          "internalType": "uint256",
          "name": "",
          "type": "uint256"
        }
      ],
      "name": "events",
      "outputs": [
        {
          "internalType": "uint24",
          "name": "eventId",
          "type": "uint24"
        },
        {
          "internalType": "string",
          "name": "eventName",
          "type": "string"
        },
        {
          "internalType": "uint32",
          "name": "maxAttendies",
          "type": "uint32"
        },
        {
          "internalType": "address",
          "name": "tokenAddress",
          "type": "address"
        },
        {
          "internalType": "bool",
          "name": "completed",
          "type": "bool"
        },
        {
          "internalType": "uint24",
          "name": "attendance",
          "type": "uint24"
        },
        {
          "internalType": "uint256",
          "name": "time",
          "type": "uint256"
        }
      ],
      "stateMutability": "view",
      "type": "function"
    },
    {
      "inputs": [
        {
          "internalType": "address",
          "name": "",
          "type": "address"
        },
        {
          "internalType": "uint256",
          "name": "",
          "type": "uint256"
        }
      ],
      "name": "hasRegistered",
      "outputs": [
        {
          "internalType": "bool",
          "name": "",
          "type": "bool"
        }
      ],
      "stateMutability": "view",
      "type": "function"
    },
    {
      "inputs": [],
      "name": "pending",
      "outputs": [
        {
          "internalType": "uint24",
          "name": "",
          "type": "uint24"
        }
      ],
      "stateMutability": "view",
      "type": "function"
    },
    {
      "inputs": [
        {
          "internalType": "uint24",
          "name": "eventId",
          "type": "uint24"
        }
      ],
      "name": "registerForEvent",
      "outputs": [],
      "stateMutability": "nonpayable",
      "type": "function"
    }
  ],
  "bytecode": "0x608060405234801561001057600080fd5b50336000806101000a81548173ffffffffffffffffffffffffffffffffffffffff021916908373ffffffffffffffffffffffffffffffffffffffff160217905550611b0e806100606000396000f3fe608060405234801561001057600080fd5b506004361061009e5760003560e01c80639374c98f116100665780639374c98f146101615780639d9a7fe91461017d578063e20ccec31461019b578063e7628de1146101b9578063efa11836146101d55761009e565b80630b791430146100a35780632d2d3664146100d95780633f9942ff146100f55780637115c2441461011357806371be2e4a14610143575b600080fd5b6100bd60048036038101906100b89190611044565b6101f1565b6040516100d097969594939291906111a9565b60405180910390f35b6100f360048036038101906100ee91906113ac565b610316565b005b6100fd610714565b60405161010a919061141b565b60405180910390f35b61012d60048036038101906101289190611436565b610729565b60405161013a9190611476565b60405180910390f35b61014b610758565b604051610158919061141b565b60405180910390f35b61017b600480360381019061017691906114bd565b61076d565b005b610185610950565b604051610192919061141b565b60405180910390f35b6101a3610965565b6040516101b0919061141b565b60405180910390f35b6101d360048036038101906101ce91906114bd565b61097a565b005b6101ef60048036038101906101ea91906114bd565b610d60565b005b60026020528060005260406000206000915090508060000160009054906101000a900462ffffff169080600101805461022990611519565b80601f016020809104026020016040519081016040528092919081815260200182805461025590611519565b80156102a25780601f10610277576101008083540402835291602001916102a2565b820191906000526020600020905b81548152906001019060200180831161028557829003601f168201915b5050505050908060020160009054906101000a900463ffffffff16908060020160049054906101000a900473ffffffffffffffffffffffffffffffffffffffff16908060020160189054906101000a900460ff16908060020160199054906101000a900462ffffff16908060030154905087565b61031e610eaf565b610326610f17565b600a8263ffffffff1611610366576040517f160144ef00000000000000000000000000000000000000000000000000000000815260040160405180910390fd5b600073ffffffffffffffffffffffffffffffffffffffff168173ffffffffffffffffffffffffffffffffffffffff16036103cc576040517f221f3e7b00000000000000000000000000000000000000000000000000000000815260040160405180910390fd5b60006001600060149054906101000a900462ffffff166103ec9190611579565b905060004290506000600260008462ffffff1681526020019081526020016000209050828160000160006101000a81548162ffffff021916908362ffffff16021790555085816001019081610441919061175c565b50848160020160006101000a81548163ffffffff021916908363ffffffff160217905550838160020160046101000a81548173ffffffffffffffffffffffffffffffffffffffff021916908373ffffffffffffffffffffffffffffffffffffffff1602179055508181600301819055506001600060148282829054906101000a900462ffffff166104d29190611579565b92506101000a81548162ffffff021916908362ffffff160217905550600060149054906101000a900462ffffff166000601a6101000a81548162ffffff021916908362ffffff16021790555060016040518060e001604052808562ffffff1681526020018881526020018763ffffffff1681526020018673ffffffffffffffffffffffffffffffffffffffff168152602001600015158152602001600062ffffff16815260200184815250908060018154018082558091505060019003906000526020600020906004020160009091909190915060008201518160000160006101000a81548162ffffff021916908362ffffff16021790555060208201518160010190816105e0919061175c565b5060408201518160020160006101000a81548163ffffffff021916908363ffffffff16021790555060608201518160020160046101000a81548173ffffffffffffffffffffffffffffffffffffffff021916908373ffffffffffffffffffffffffffffffffffffffff16021790555060808201518160020160186101000a81548160ff02191690831515021790555060a08201518160020160196101000a81548162ffffff021916908362ffffff16021790555060c0820151816003015550508373ffffffffffffffffffffffffffffffffffffffff16866040516106c5919061186a565b60405180910390208462ffffff167f7b063a004a356c4e5bb3232d508816f03bd6ffa5690097ab8820c70cae4d40888886604051610704929190611881565b60405180910390a4505050505050565b6000601d9054906101000a900462ffffff1681565b60036020528160005260406000206020528060005260406000206000915091509054906101000a900460ff1681565b600060149054906101000a900462ffffff1681565b610775610eaf565b61077d610f17565b6000600260008362ffffff1681526020019081526020016000209050600260008362ffffff168152602001908152602001600020600080820160006101000a81549062ffffff02191690556001820160006107d89190610f9d565b6002820160006101000a81549063ffffffff02191690556002820160046101000a81549073ffffffffffffffffffffffffffffffffffffffff02191690556002820160186101000a81549060ff02191690556002820160196101000a81549062ffffff02191690556003820160009055505060016000601a8282829054906101000a900462ffffff1661086b91906118aa565b92506101000a81548162ffffff021916908362ffffff16021790555060016000601d8282829054906101000a900462ffffff166108a89190611579565b92506101000a81548162ffffff021916908362ffffff1602179055508060020160009054906101000a900463ffffffff1663ffffffff1681600301548260000160009054906101000a900462ffffff1662ffffff167f15bc81af034734daf569dac8d47143763561fff94d1644bd53dc2744363db5fe846001018560020160199054906101000a900462ffffff16604051610944929190611996565b60405180910390a45050565b600060179054906101000a900462ffffff1681565b6000601a9054906101000a900462ffffff1681565b610982610eaf565b6000600260008362ffffff16815260200190815260200160002090508060020160189054906101000a900460ff16610a7d5760016000601a8282829054906101000a900462ffffff166109d591906118aa565b92506101000a81548162ffffff021916908362ffffff1602179055506001600060178282829054906101000a900462ffffff16610a129190611579565b92506101000a81548162ffffff021916908362ffffff16021790555060018160020160186101000a81548160ff0219169083151502179055506040517f529e0bf600000000000000000000000000000000000000000000000000000000815260040160405180910390fd5b600360003373ffffffffffffffffffffffffffffffffffffffff1673ffffffffffffffffffffffffffffffffffffffff16815260200190815260200160002060008260000160009054906101000a900462ffffff1662ffffff16815260200190815260200160002060009054906101000a900460ff16610b29576040517f8b5d015a00000000000000000000000000000000000000000000000000000000815260040160405180910390fd5b60008160020160049054906101000a900473ffffffffffffffffffffffffffffffffffffffff16905060008173ffffffffffffffffffffffffffffffffffffffff166370a08231336040518263ffffffff1660e01b8152600401610b8d91906119c6565b602060405180830381865afa158015610baa573d6000803e3d6000fd5b505050506040513d601f19601f82011682018060405250810190610bce91906119f6565b90506001811015610c0b576040517fe9002a7700000000000000000000000000000000000000000000000000000000815260040160405180910390fd5b60011515600360003373ffffffffffffffffffffffffffffffffffffffff1673ffffffffffffffffffffffffffffffffffffffff16815260200190815260200160002060008560000160009054906101000a900462ffffff1662ffffff16815260200190815260200160002060009054906101000a9050505060018360020160198282829054906101000a900462ffffff16610ca79190611579565b92506101000a81548162ffffff021916908362ffffff1602179055508260020160009054906101000a900463ffffffff1663ffffffff1683600101604051610cef9190611aa6565b60405180910390208460000160009054906101000a900462ffffff1662ffffff167f9e8ac173d7686066dbc6b9dabb9db20a85c40bc6afb9f5a47753505ee06a34b18660020160199054906101000a900462ffffff16604051610d529190611abd565b60405180910390a450505050565b610d68610eaf565b610d70610f17565b6000600260008362ffffff168152602001908152602001600020905060018160020160186101000a81548160ff02191690831515021790555060016000601a8282829054906101000a900462ffffff16610dca91906118aa565b92506101000a81548162ffffff021916908362ffffff1602179055506001600060178282829054906101000a900462ffffff16610e079190611579565b92506101000a81548162ffffff021916908362ffffff1602179055508060020160009054906101000a900463ffffffff1663ffffffff1681600301548260000160009054906101000a900462ffffff1662ffffff167f641abfc86ed6455408f93938115e21419354b7249268a369e2aa81b233a12afb846001018560020160199054906101000a900462ffffff16604051610ea3929190611996565b60405180910390a45050565b600073ffffffffffffffffffffffffffffffffffffffff163373ffffffffffffffffffffffffffffffffffffffff1603610f15576040517f221f3e7b00000000000000000000000000000000000000000000000000000000815260040160405180910390fd5b565b3373ffffffffffffffffffffffffffffffffffffffff1660008054906101000a900473ffffffffffffffffffffffffffffffffffffffff1673ffffffffffffffffffffffffffffffffffffffff1614610f9b576040517e6b6d7000000000000000000000000000000000000000000000000000000000815260040160405180910390fd5b565b508054610fa990611519565b6000825580601f10610fbb5750610fda565b601f016020900490600052602060002090810190610fd99190610fdd565b5b50565b5b80821115610ff6576000816000905550600101610fde565b5090565b6000604051905090565b600080fd5b600080fd5b6000819050919050565b6110218161100e565b811461102c57600080fd5b50565b60008135905061103e81611018565b92915050565b60006020828403121561105a57611059611004565b5b60006110688482850161102f565b91505092915050565b600062ffffff82169050919050565b61108981611071565b82525050565b600081519050919050565b600082825260208201905092915050565b60005b838110156110c95780820151818401526020810190506110ae565b60008484015250505050565b6000601f19601f8301169050919050565b60006110f18261108f565b6110fb818561109a565b935061110b8185602086016110ab565b611114816110d5565b840191505092915050565b600063ffffffff82169050919050565b6111388161111f565b82525050565b600073ffffffffffffffffffffffffffffffffffffffff82169050919050565b60006111698261113e565b9050919050565b6111798161115e565b82525050565b60008115159050919050565b6111948161117f565b82525050565b6111a38161100e565b82525050565b600060e0820190506111be600083018a611080565b81810360208301526111d081896110e6565b90506111df604083018861112f565b6111ec6060830187611170565b6111f9608083018661118b565b61120660a0830185611080565b61121360c083018461119a565b98975050505050505050565b600080fd5b600080fd5b7f4e487b7100000000000000000000000000000000000000000000000000000000600052604160045260246000fd5b611261826110d5565b810181811067ffffffffffffffff821117156112805761127f611229565b5b80604052505050565b6000611293610ffa565b905061129f8282611258565b919050565b600067ffffffffffffffff8211156112bf576112be611229565b5b6112c8826110d5565b9050602081019050919050565b82818337600083830152505050565b60006112f76112f2846112a4565b611289565b90508281526020810184848401111561131357611312611224565b5b61131e8482856112d5565b509392505050565b600082601f83011261133b5761133a61121f565b5b813561134b8482602086016112e4565b91505092915050565b61135d8161111f565b811461136857600080fd5b50565b60008135905061137a81611354565b92915050565b6113898161115e565b811461139457600080fd5b50565b6000813590506113a681611380565b92915050565b6000806000606084860312156113c5576113c4611004565b5b600084013567ffffffffffffffff8111156113e3576113e2611009565b5b6113ef86828701611326565b93505060206114008682870161136b565b925050604061141186828701611397565b9150509250925092565b60006020820190506114306000830184611080565b92915050565b6000806040838503121561144d5761144c611004565b5b600061145b85828601611397565b925050602061146c8582860161102f565b9150509250929050565b600060208201905061148b600083018461118b565b92915050565b61149a81611071565b81146114a557600080fd5b50565b6000813590506114b781611491565b92915050565b6000602082840312156114d3576114d2611004565b5b60006114e1848285016114a8565b91505092915050565b7f4e487b7100000000000000000000000000000000000000000000000000000000600052602260045260246000fd5b6000600282049050600182168061153157607f821691505b602082108103611544576115436114ea565b5b50919050565b7f4e487b7100000000000000000000000000000000000000000000000000000000600052601160045260246000fd5b600061158482611071565b915061158f83611071565b9250828201905062ffffff8111156115aa576115a961154a565b5b92915050565b60008190508160005260206000209050919050565b60006020601f8301049050919050565b600082821b905092915050565b6000600883026116127fffffffffffffffffffffffffffffffffffffffffffffffffffffffffffffffff826115d5565b61161c86836115d5565b95508019841693508086168417925050509392505050565b6000819050919050565b600061165961165461164f8461100e565b611634565b61100e565b9050919050565b6000819050919050565b6116738361163e565b61168761167f82611660565b8484546115e2565b825550505050565b600090565b61169c61168f565b6116a781848461166a565b505050565b5b818110156116cb576116c0600082611694565b6001810190506116ad565b5050565b601f821115611710576116e1816115b0565b6116ea846115c5565b810160208510156116f9578190505b61170d611705856115c5565b8301826116ac565b50505b505050565b600082821c905092915050565b600061173360001984600802611715565b1980831691505092915050565b600061174c8383611722565b9150826002028217905092915050565b6117658261108f565b67ffffffffffffffff81111561177e5761177d611229565b5b6117888254611519565b6117938282856116cf565b600060209050601f8311600181146117c657600084156117b4578287015190505b6117be8582611740565b865550611826565b601f1984166117d4866115b0565b60005b828110156117fc578489015182556001820191506020850194506020810190506117d7565b868310156118195784890151611815601f891682611722565b8355505b6001600288020188555050505b505050505050565b600081905092915050565b60006118448261108f565b61184e818561182e565b935061185e8185602086016110ab565b80840191505092915050565b60006118768284611839565b915081905092915050565b6000604082019050611896600083018561112f565b6118a3602083018461119a565b9392505050565b60006118b582611071565b91506118c083611071565b9250828203905062ffffff8111156118db576118da61154a565b5b92915050565b600081546118ee81611519565b6118f8818661109a565b9450600182166000811461191357600181146119295761195c565b60ff19831686528115156020028601935061195c565b611932856115b0565b60005b8381101561195457815481890152600182019150602081019050611935565b808801955050505b50505092915050565b600061198061197b61197684611071565b611634565b61100e565b9050919050565b61199081611965565b82525050565b600060408201905081810360008301526119b081856118e1565b90506119bf6020830184611987565b9392505050565b60006020820190506119db6000830184611170565b92915050565b6000815190506119f081611018565b92915050565b600060208284031215611a0c57611a0b611004565b5b6000611a1a848285016119e1565b91505092915050565b60008154611a3081611519565b611a3a818661182e565b94506001821660008114611a555760018114611a6a57611a9d565b60ff1983168652811515820286019350611a9d565b611a73856115b0565b60005b83811015611a9557815481890152600182019150602081019050611a76565b838801955050505b50505092915050565b6000611ab28284611a23565b915081905092915050565b6000602082019050611ad26000830184611987565b9291505056fea26469706673582212206b2b29dc05632d516a470fdba428314c2b3d26f1d89234b15b00d9634924715e64736f6c63430008180033",
  "linkReferences": {},
  "deployedLinkReferences": {}
}