{
  "_format": "hh-sol-artifact-1",
  "contractName": "NIkToken",
  "sourceName": "contracts/practice-erc/NIKToken.sol",
  "abi": [
    {
      "inputs": [],
      "stateMutability": "nonpayable",
      "type": "constructor"
    },
    {
      "inputs": [],
      "name": "ERC721EnumerableForbiddenBatchMint",
      "type": "error"
    },
    {
      "inputs": [
        {
          "internalType": "address",
          "name": "sender",
          "type": "address"
        },
        {
          "internalType": "uint256",
          "name": "tokenId",
          "type": "uint256"
        },
        {
          "internalType": "address",
          "name": "owner",
          "type": "address"
        }
      ],
      "name": "ERC721IncorrectOwner",
      "type": "error"
    },
    {
      "inputs": [
        {
          "internalType": "address",
          "name": "operator",
          "type": "address"
        },
        {
          "internalType": "uint256",
          "name": "tokenId",
          "type": "uint256"
        }
      ],
      "name": "ERC721InsufficientApproval",
      "type": "error"
    },
    {
      "inputs": [
        {
          "internalType": "address",
          "name": "approver",
          "type": "address"
        }
      ],
      "name": "ERC721InvalidApprover",
      "type": "error"
    },
    {
      "inputs": [
        {
          "internalType": "address",
          "name": "operator",
          "type": "address"
        }
      ],
      "name": "ERC721InvalidOperator",
      "type": "error"
    },
    {
      "inputs": [
        {
          "internalType": "address",
          "name": "owner",
          "type": "address"
        }
      ],
      "name": "ERC721InvalidOwner",
      "type": "error"
    },
    {
      "inputs": [
        {
          "internalType": "address",
          "name": "receiver",
          "type": "address"
        }
      ],
      "name": "ERC721InvalidReceiver",
      "type": "error"
    },
    {
      "inputs": [
        {
          "internalType": "address",
          "name": "sender",
          "type": "address"
        }
      ],
      "name": "ERC721InvalidSender",
      "type": "error"
    },
    {
      "inputs": [
        {
          "internalType": "uint256",
          "name": "tokenId",
          "type": "uint256"
        }
      ],
      "name": "ERC721NonexistentToken",
      "type": "error"
    },
    {
      "inputs": [
        {
          "internalType": "address",
          "name": "owner",
          "type": "address"
        },
        {
          "internalType": "uint256",
          "name": "index",
          "type": "uint256"
        }
      ],
      "name": "ERC721OutOfBoundsIndex",
      "type": "error"
    },
    {
      "inputs": [],
      "name": "EnforcedPause",
      "type": "error"
    },
    {
      "inputs": [],
      "name": "ExpectedPause",
      "type": "error"
    },
    {
      "inputs": [
        {
          "internalType": "address",
          "name": "owner",
          "type": "address"
        }
      ],
      "name": "OwnableInvalidOwner",
      "type": "error"
    },
    {
      "inputs": [
        {
          "internalType": "address",
          "name": "account",
          "type": "address"
        }
      ],
      "name": "OwnableUnauthorizedAccount",
      "type": "error"
    },
    {
      "anonymous": false,
      "inputs": [
        {
          "indexed": true,
          "internalType": "address",
          "name": "owner",
          "type": "address"
        },
        {
          "indexed": true,
          "internalType": "address",
          "name": "approved",
          "type": "address"
        },
        {
          "indexed": true,
          "internalType": "uint256",
          "name": "tokenId",
          "type": "uint256"
        }
      ],
      "name": "Approval",
      "type": "event"
    },
    {
      "anonymous": false,
      "inputs": [
        {
          "indexed": true,
          "internalType": "address",
          "name": "owner",
          "type": "address"
        },
        {
          "indexed": true,
          "internalType": "address",
          "name": "operator",
          "type": "address"
        },
        {
          "indexed": false,
          "internalType": "bool",
          "name": "approved",
          "type": "bool"
        }
      ],
      "name": "ApprovalForAll",
      "type": "event"
    },
    {
      "anonymous": false,
      "inputs": [
        {
          "indexed": true,
          "internalType": "address",
          "name": "previousOwner",
          "type": "address"
        },
        {
          "indexed": true,
          "internalType": "address",
          "name": "newOwner",
          "type": "address"
        }
      ],
      "name": "OwnershipTransferred",
      "type": "event"
    },
    {
      "anonymous": false,
      "inputs": [
        {
          "indexed": false,
          "internalType": "address",
          "name": "account",
          "type": "address"
        }
      ],
      "name": "Paused",
      "type": "event"
    },
    {
      "anonymous": false,
      "inputs": [
        {
          "indexed": true,
          "internalType": "address",
          "name": "from",
          "type": "address"
        },
        {
          "indexed": true,
          "internalType": "address",
          "name": "to",
          "type": "address"
        },
        {
          "indexed": true,
          "internalType": "uint256",
          "name": "tokenId",
          "type": "uint256"
        }
      ],
      "name": "Transfer",
      "type": "event"
    },
    {
      "anonymous": false,
      "inputs": [
        {
          "indexed": false,
          "internalType": "address",
          "name": "account",
          "type": "address"
        }
      ],
      "name": "Unpaused",
      "type": "event"
    },
    {
      "inputs": [],
      "name": "allowListMint",
      "outputs": [],
      "stateMutability": "payable",
      "type": "function"
    },
    {
      "inputs": [],
      "name": "allowListMintOpen",
      "outputs": [
        {
          "internalType": "bool",
          "name": "",
          "type": "bool"
        }
      ],
      "stateMutability": "view",
      "type": "function"
    },
    {
      "inputs": [
        {
          "internalType": "address",
          "name": "to",
          "type": "address"
        },
        {
          "internalType": "uint256",
          "name": "tokenId",
          "type": "uint256"
        }
      ],
      "name": "approve",
      "outputs": [],
      "stateMutability": "nonpayable",
      "type": "function"
    },
    {
      "inputs": [
        {
          "internalType": "address",
          "name": "owner",
          "type": "address"
        }
      ],
      "name": "balanceOf",
      "outputs": [
        {
          "internalType": "uint256",
          "name": "",
          "type": "uint256"
        }
      ],
      "stateMutability": "view",
      "type": "function"
    },
    {
      "inputs": [
        {
          "internalType": "bool",
          "name": "_publicMintOpen",
          "type": "bool"
        },
        {
          "internalType": "bool",
          "name": "_allowLMintOpen",
          "type": "bool"
        }
      ],
      "name": "editMintWindows",
      "outputs": [],
      "stateMutability": "nonpayable",
      "type": "function"
    },
    {
      "inputs": [
        {
          "internalType": "uint256",
          "name": "tokenId",
          "type": "uint256"
        }
      ],
      "name": "getApproved",
      "outputs": [
        {
          "internalType": "address",
          "name": "",
          "type": "address"
        }
      ],
      "stateMutability": "view",
      "type": "function"
    },
    {
      "inputs": [
        {
          "internalType": "address",
          "name": "owner",
          "type": "address"
        },
        {
          "internalType": "address",
          "name": "operator",
          "type": "address"
        }
      ],
      "name": "isApprovedForAll",
      "outputs": [
        {
          "internalType": "bool",
          "name": "",
          "type": "bool"
        }
      ],
      "stateMutability": "view",
      "type": "function"
    },
    {
      "inputs": [],
      "name": "maxAllowListSupply",
      "outputs": [
        {
          "internalType": "uint256",
          "name": "",
          "type": "uint256"
        }
      ],
      "stateMutability": "view",
      "type": "function"
    },
    {
      "inputs": [],
      "name": "maxSupply",
      "outputs": [
        {
          "internalType": "uint256",
          "name": "",
          "type": "uint256"
        }
      ],
      "stateMutability": "view",
      "type": "function"
    },
    {
      "inputs": [],
      "name": "name",
      "outputs": [
        {
          "internalType": "string",
          "name": "",
          "type": "string"
        }
      ],
      "stateMutability": "view",
      "type": "function"
    },
    {
      "inputs": [],
      "name": "owner",
      "outputs": [
        {
          "internalType": "address",
          "name": "",
          "type": "address"
        }
      ],
      "stateMutability": "view",
      "type": "function"
    },
    {
      "inputs": [
        {
          "internalType": "uint256",
          "name": "tokenId",
          "type": "uint256"
        }
      ],
      "name": "ownerOf",
      "outputs": [
        {
          "internalType": "address",
          "name": "",
          "type": "address"
        }
      ],
      "stateMutability": "view",
      "type": "function"
    },
    {
      "inputs": [],
      "name": "pause",
      "outputs": [],
      "stateMutability": "nonpayable",
      "type": "function"
    },
    {
      "inputs": [],
      "name": "paused",
      "outputs": [
        {
          "internalType": "bool",
          "name": "",
          "type": "bool"
        }
      ],
      "stateMutability": "view",
      "type": "function"
    },
    {
      "inputs": [],
      "name": "publicMint",
      "outputs": [],
      "stateMutability": "payable",
      "type": "function"
    },
    {
      "inputs": [],
      "name": "publicMintOpen",
      "outputs": [
        {
          "internalType": "bool",
          "name": "",
          "type": "bool"
        }
      ],
      "stateMutability": "view",
      "type": "function"
    },
    {
      "inputs": [],
      "name": "renounceOwnership",
      "outputs": [],
      "stateMutability": "nonpayable",
      "type": "function"
    },
    {
      "inputs": [
        {
          "internalType": "address",
          "name": "from",
          "type": "address"
        },
        {
          "internalType": "address",
          "name": "to",
          "type": "address"
        },
        {
          "internalType": "uint256",
          "name": "tokenId",
          "type": "uint256"
        }
      ],
      "name": "safeTransferFrom",
      "outputs": [],
      "stateMutability": "nonpayable",
      "type": "function"
    },
    {
      "inputs": [
        {
          "internalType": "address",
          "name": "from",
          "type": "address"
        },
        {
          "internalType": "address",
          "name": "to",
          "type": "address"
        },
        {
          "internalType": "uint256",
          "name": "tokenId",
          "type": "uint256"
        },
        {
          "internalType": "bytes",
          "name": "data",
          "type": "bytes"
        }
      ],
      "name": "safeTransferFrom",
      "outputs": [],
      "stateMutability": "nonpayable",
      "type": "function"
    },
    {
      "inputs": [
        {
          "internalType": "address[]",
          "name": "addresses",
          "type": "address[]"
        }
      ],
      "name": "setAllowedList",
      "outputs": [],
      "stateMutability": "nonpayable",
      "type": "function"
    },
    {
      "inputs": [
        {
          "internalType": "address",
          "name": "operator",
          "type": "address"
        },
        {
          "internalType": "bool",
          "name": "approved",
          "type": "bool"
        }
      ],
      "name": "setApprovalForAll",
      "outputs": [],
      "stateMutability": "nonpayable",
      "type": "function"
    },
    {
      "inputs": [
        {
          "internalType": "bytes4",
          "name": "interfaceId",
          "type": "bytes4"
        }
      ],
      "name": "supportsInterface",
      "outputs": [
        {
          "internalType": "bool",
          "name": "",
          "type": "bool"
        }
      ],
      "stateMutability": "view",
      "type": "function"
    },
    {
      "inputs": [],
      "name": "symbol",
      "outputs": [
        {
          "internalType": "string",
          "name": "",
          "type": "string"
        }
      ],
      "stateMutability": "view",
      "type": "function"
    },
    {
      "inputs": [
        {
          "internalType": "uint256",
          "name": "index",
          "type": "uint256"
        }
      ],
      "name": "tokenByIndex",
      "outputs": [
        {
          "internalType": "uint256",
          "name": "",
          "type": "uint256"
        }
      ],
      "stateMutability": "view",
      "type": "function"
    },
    {
      "inputs": [
        {
          "internalType": "address",
          "name": "owner",
          "type": "address"
        },
        {
          "internalType": "uint256",
          "name": "index",
          "type": "uint256"
        }
      ],
      "name": "tokenOfOwnerByIndex",
      "outputs": [
        {
          "internalType": "uint256",
          "name": "",
          "type": "uint256"
        }
      ],
      "stateMutability": "view",
      "type": "function"
    },
    {
      "inputs": [
        {
          "internalType": "uint256",
          "name": "tokenId",
          "type": "uint256"
        }
      ],
      "name": "tokenURI",
      "outputs": [
        {
          "internalType": "string",
          "name": "",
          "type": "string"
        }
      ],
      "stateMutability": "view",
      "type": "function"
    },
    {
      "inputs": [],
      "name": "totalSupply",
      "outputs": [
        {
          "internalType": "uint256",
          "name": "",
          "type": "uint256"
        }
      ],
      "stateMutability": "view",
      "type": "function"
    },
    {
      "inputs": [
        {
          "internalType": "address",
          "name": "from",
          "type": "address"
        },
        {
          "internalType": "address",
          "name": "to",
          "type": "address"
        },
        {
          "internalType": "uint256",
          "name": "tokenId",
          "type": "uint256"
        }
      ],
      "name": "transferFrom",
      "outputs": [],
      "stateMutability": "nonpayable",
      "type": "function"
    },
    {
      "inputs": [
        {
          "internalType": "address",
          "name": "newOwner",
          "type": "address"
        }
      ],
      "name": "transferOwnership",
      "outputs": [],
      "stateMutability": "nonpayable",
      "type": "function"
    },
    {
      "inputs": [],
      "name": "unpause",
      "outputs": [],
      "stateMutability": "nonpayable",
      "type": "function"
    },
    {
      "inputs": [
        {
          "internalType": "address",
          "name": "_addr",
          "type": "address"
        }
      ],
      "name": "withdraw",
      "outputs": [],
      "stateMutability": "nonpayable",
      "type": "function"
    }
  ],
  "bytecode": "0x60806040526003600c556002600d556000600f60006101000a81548160ff0219169083151502179055506000600f60016101000a81548160ff0219169083151502179055503480156200005157600080fd5b50336040518060400160405280600881526020017f4e496b546f6b656e0000000000000000000000000000000000000000000000008152506040518060400160405280600281526020017f4e4b0000000000000000000000000000000000000000000000000000000000008152508160009081620000d09190620004cd565b508060019081620000e29190620004cd565b5050506000600a60006101000a81548160ff021916908315150217905550600073ffffffffffffffffffffffffffffffffffffffff168173ffffffffffffffffffffffffffffffffffffffff1603620001755760006040517f1e4fbdf70000000000000000000000000000000000000000000000000000000081526004016200016c9190620005f9565b60405180910390fd5b62000186816200018d60201b60201c565b5062000616565b6000600a60019054906101000a900473ffffffffffffffffffffffffffffffffffffffff16905081600a60016101000a81548173ffffffffffffffffffffffffffffffffffffffff021916908373ffffffffffffffffffffffffffffffffffffffff1602179055508173ffffffffffffffffffffffffffffffffffffffff168173ffffffffffffffffffffffffffffffffffffffff167f8be0079c531659141344cd1fd0a4f28419497f9722a3daafe3b4186f6b6457e060405160405180910390a35050565b600081519050919050565b7f4e487b7100000000000000000000000000000000000000000000000000000000600052604160045260246000fd5b7f4e487b7100000000000000000000000000000000000000000000000000000000600052602260045260246000fd5b60006002820490506001821680620002d557607f821691505b602082108103620002eb57620002ea6200028d565b5b50919050565b60008190508160005260206000209050919050565b60006020601f8301049050919050565b600082821b905092915050565b600060088302620003557fffffffffffffffffffffffffffffffffffffffffffffffffffffffffffffffff8262000316565b62000361868362000316565b95508019841693508086168417925050509392505050565b6000819050919050565b6000819050919050565b6000620003ae620003a8620003a28462000379565b62000383565b62000379565b9050919050565b6000819050919050565b620003ca836200038d565b620003e2620003d982620003b5565b84845462000323565b825550505050565b600090565b620003f9620003ea565b62000406818484620003bf565b505050565b5b818110156200042e5762000422600082620003ef565b6001810190506200040c565b5050565b601f8211156200047d576200044781620002f1565b620004528462000306565b8101602085101562000462578190505b6200047a620004718562000306565b8301826200040b565b50505b505050565b600082821c905092915050565b6000620004a26000198460080262000482565b1980831691505092915050565b6000620004bd83836200048f565b9150826002028217905092915050565b620004d88262000253565b67ffffffffffffffff811115620004f457620004f36200025e565b5b620005008254620002bc565b6200050d82828562000432565b600060209050601f83116001811462000545576000841562000530578287015190505b6200053c8582620004af565b865550620005ac565b601f1984166200055586620002f1565b60005b828110156200057f5784890151825560018201915060208501945060208101905062000558565b868310156200059f57848901516200059b601f8916826200048f565b8355505b6001600288020188555050505b505050505050565b600073ffffffffffffffffffffffffffffffffffffffff82169050919050565b6000620005e182620005b4565b9050919050565b620005f381620005d4565b82525050565b6000602082019050620006106000830184620005e8565b92915050565b6132ff80620006266000396000f3fe6080604052600436106101d85760003560e01c8063524d674a11610102578063a22cb46511610095578063d5abeb0111610064578063d5abeb0114610656578063e985e9c514610681578063ed62900f146106be578063f2fde38b146106e9576101d8565b8063a22cb4651461059c578063b88d4fde146105c5578063bcc9ca5b146105ee578063c87b56dd14610619576101d8565b8063715018a6116100d1578063715018a6146105185780638456cb591461052f5780638da5cb5b1461054657806395d89b4114610571576101d8565b8063524d674a1461044a5780635c975abb146104735780636352211e1461049e57806370a08231146104db576101d8565b806323b872dd1161017a5780633f4ba83a116101495780633f4ba83a146103a457806342842e0e146103bb5780634f6ccce7146103e457806351cff8d914610421576101d8565b806323b872dd1461030b57806326092b83146103345780632f48de791461033e5780632f745c5914610367576101d8565b8063085c9bac116101b6578063085c9bac14610282578063095ea7b3146102ad578063102a6a73146102d657806318160ddd146102e0576101d8565b806301ffc9a7146101dd57806306fdde031461021a578063081812fc14610245575b600080fd5b3480156101e957600080fd5b5061020460048036038101906101ff919061276d565b610712565b60405161021191906127b5565b60405180910390f35b34801561022657600080fd5b5061022f610724565b60405161023c9190612860565b60405180910390f35b34801561025157600080fd5b5061026c600480360381019061026791906128b8565b6107b6565b6040516102799190612926565b60405180910390f35b34801561028e57600080fd5b506102976107d2565b6040516102a491906127b5565b60405180910390f35b3480156102b957600080fd5b506102d460048036038101906102cf919061296d565b6107e5565b005b6102de6107fb565b005b3480156102ec57600080fd5b506102f56108e8565b60405161030291906129bc565b60405180910390f35b34801561031757600080fd5b50610332600480360381019061032d91906129d7565b6108f5565b005b61033c6109f7565b005b34801561034a57600080fd5b5061036560048036038101906103609190612a56565b610ae4565b005b34801561037357600080fd5b5061038e6004803603810190610389919061296d565b610b24565b60405161039b91906129bc565b60405180910390f35b3480156103b057600080fd5b506103b9610bcd565b005b3480156103c757600080fd5b506103e260048036038101906103dd91906129d7565b610bdf565b005b3480156103f057600080fd5b5061040b600480360381019061040691906128b8565b610bff565b60405161041891906129bc565b60405180910390f35b34801561042d57600080fd5b5061044860048036038101906104439190612a96565b610c75565b005b34801561045657600080fd5b50610471600480360381019061046c9190612b28565b610ccd565b005b34801561047f57600080fd5b50610488610d74565b60405161049591906127b5565b60405180910390f35b3480156104aa57600080fd5b506104c560048036038101906104c091906128b8565b610d8b565b6040516104d29190612926565b60405180910390f35b3480156104e757600080fd5b5061050260048036038101906104fd9190612a96565b610d9d565b60405161050f91906129bc565b60405180910390f35b34801561052457600080fd5b5061052d610e57565b005b34801561053b57600080fd5b50610544610e6b565b005b34801561055257600080fd5b5061055b610e7d565b6040516105689190612926565b60405180910390f35b34801561057d57600080fd5b50610586610ea7565b6040516105939190612860565b60405180910390f35b3480156105a857600080fd5b506105c360048036038101906105be9190612b75565b610f39565b005b3480156105d157600080fd5b506105ec60048036038101906105e79190612ce5565b610f4f565b005b3480156105fa57600080fd5b50610603610f6c565b60405161061091906127b5565b60405180910390f35b34801561062557600080fd5b50610640600480360381019061063b91906128b8565b610f7f565b60405161064d9190612860565b60405180910390f35b34801561066257600080fd5b5061066b610fe8565b60405161067891906129bc565b60405180910390f35b34801561068d57600080fd5b506106a860048036038101906106a39190612d68565b610fee565b6040516106b591906127b5565b60405180910390f35b3480156106ca57600080fd5b506106d3611082565b6040516106e091906129bc565b60405180910390f35b3480156106f557600080fd5b50610710600480360381019061070b9190612a96565b611088565b005b600061071d8261110e565b9050919050565b60606000805461073390612dd7565b80601f016020809104026020016040519081016040528092919081815260200182805461075f90612dd7565b80156107ac5780601f10610781576101008083540402835291602001916107ac565b820191906000526020600020905b81548152906001019060200180831161078f57829003601f168201915b5050505050905090565b60006107c182611188565b506107cb82611210565b9050919050565b600f60019054906101000a900460ff1681565b6107f782826107f261124d565b611255565b5050565b600f60019054906101000a900460ff1661084a576040517f08c379a000000000000000000000000000000000000000000000000000000000815260040161084190612e54565b60405180910390fd5b662386f26fc100003414610893576040517f08c379a000000000000000000000000000000000000000000000000000000000815260040161088a90612ec0565b60405180910390fd5b600d5461089e6108e8565b106108de576040517f08c379a00000000000000000000000000000000000000000000000000000000081526004016108d590612f2c565b60405180910390fd5b6108e6611267565b565b6000600880549050905090565b600073ffffffffffffffffffffffffffffffffffffffff168273ffffffffffffffffffffffffffffffffffffffff16036109675760006040517f64a0ae9200000000000000000000000000000000000000000000000000000000815260040161095e9190612926565b60405180910390fd5b600061097b838361097661124d565b61128f565b90508373ffffffffffffffffffffffffffffffffffffffff168173ffffffffffffffffffffffffffffffffffffffff16146109f1578382826040517f64283d7b0000000000000000000000000000000000000000000000000000000081526004016109e893929190612f4c565b60405180910390fd5b50505050565b600f60009054906101000a900460ff16610a46576040517f08c379a0000000000000000000000000000000000000000000000000000000008152600401610a3d90612fcf565b60405180910390fd5b662386f26fc100003414610a8f576040517f08c379a0000000000000000000000000000000000000000000000000000000008152600401610a8690612ec0565b60405180910390fd5b600c54610a9a6108e8565b10610ada576040517f08c379a0000000000000000000000000000000000000000000000000000000008152600401610ad190612f2c565b60405180910390fd5b610ae2611267565b565b610aec6112a5565b81600f60006101000a81548160ff02191690831515021790555080600f60016101000a81548160ff0219169083151502179055505050565b6000610b2f83610d9d565b8210610b745782826040517fa57d13dc000000000000000000000000000000000000000000000000000000008152600401610b6b929190612fef565b60405180910390fd5b600660008473ffffffffffffffffffffffffffffffffffffffff1673ffffffffffffffffffffffffffffffffffffffff168152602001908152602001600020600083815260200190815260200160002054905092915050565b610bd56112a5565b610bdd61132c565b565b610bfa83838360405180602001604052806000815250610f4f565b505050565b6000610c096108e8565b8210610c4f576000826040517fa57d13dc000000000000000000000000000000000000000000000000000000008152600401610c46929190612fef565b60405180910390fd5b60088281548110610c6357610c62613018565b5b90600052602060002001549050919050565b610c7d6112a5565b60004790508173ffffffffffffffffffffffffffffffffffffffff166108fc829081150290604051600060405180830381858888f19350505050158015610cc8573d6000803e3d6000fd5b505050565b610cd56112a5565b60005b82829050811015610d6f576001600e6000858585818110610cfc57610cfb613018565b5b9050602002016020810190610d119190612a96565b73ffffffffffffffffffffffffffffffffffffffff1673ffffffffffffffffffffffffffffffffffffffff16815260200190815260200160002060006101000a81548160ff0219169083151502179055508080600101915050610cd8565b505050565b6000600a60009054906101000a900460ff16905090565b6000610d9682611188565b9050919050565b60008073ffffffffffffffffffffffffffffffffffffffff168273ffffffffffffffffffffffffffffffffffffffff1603610e105760006040517f89c62b64000000000000000000000000000000000000000000000000000000008152600401610e079190612926565b60405180910390fd5b600360008373ffffffffffffffffffffffffffffffffffffffff1673ffffffffffffffffffffffffffffffffffffffff168152602001908152602001600020549050919050565b610e5f6112a5565b610e69600061138f565b565b610e736112a5565b610e7b611455565b565b6000600a60019054906101000a900473ffffffffffffffffffffffffffffffffffffffff16905090565b606060018054610eb690612dd7565b80601f0160208091040260200160405190810160405280929190818152602001828054610ee290612dd7565b8015610f2f5780601f10610f0457610100808354040283529160200191610f2f565b820191906000526020600020905b815481529060010190602001808311610f1257829003601f168201915b5050505050905090565b610f4b610f4461124d565b83836114b8565b5050565b610f5a8484846108f5565b610f6684848484611627565b50505050565b600f60009054906101000a900460ff1681565b6060610f8a82611188565b506000610f956117de565b90506000815111610fb55760405180602001604052806000815250610fe0565b80610fbf846117fe565b604051602001610fd0929190613083565b6040516020818303038152906040525b915050919050565b600c5481565b6000600560008473ffffffffffffffffffffffffffffffffffffffff1673ffffffffffffffffffffffffffffffffffffffff16815260200190815260200160002060008373ffffffffffffffffffffffffffffffffffffffff1673ffffffffffffffffffffffffffffffffffffffff16815260200190815260200160002060009054906101000a900460ff16905092915050565b600d5481565b6110906112a5565b600073ffffffffffffffffffffffffffffffffffffffff168173ffffffffffffffffffffffffffffffffffffffff16036111025760006040517f1e4fbdf70000000000000000000000000000000000000000000000000000000081526004016110f99190612926565b60405180910390fd5b61110b8161138f565b50565b60007f780e9d63000000000000000000000000000000000000000000000000000000007bffffffffffffffffffffffffffffffffffffffffffffffffffffffff1916827bffffffffffffffffffffffffffffffffffffffffffffffffffffffff191614806111815750611180826118cc565b5b9050919050565b600080611194836119ae565b9050600073ffffffffffffffffffffffffffffffffffffffff168173ffffffffffffffffffffffffffffffffffffffff160361120757826040517f7e2732890000000000000000000000000000000000000000000000000000000081526004016111fe91906129bc565b60405180910390fd5b80915050919050565b60006004600083815260200190815260200160002060009054906101000a900473ffffffffffffffffffffffffffffffffffffffff169050919050565b600033905090565b61126283838360016119eb565b505050565b6000600b600081548092919061127c906130d6565b91905055905061128c3382611bb0565b50565b600061129c848484611bce565b90509392505050565b6112ad61124d565b73ffffffffffffffffffffffffffffffffffffffff166112cb610e7d565b73ffffffffffffffffffffffffffffffffffffffff161461132a576112ee61124d565b6040517f118cdaa70000000000000000000000000000000000000000000000000000000081526004016113219190612926565b60405180910390fd5b565b611334611bec565b6000600a60006101000a81548160ff0219169083151502179055507f5db9ee0a495bf2e6ff9c91a7834c1ba4fdd244a5e8aa4e537bd38aeae4b073aa61137861124d565b6040516113859190612926565b60405180910390a1565b6000600a60019054906101000a900473ffffffffffffffffffffffffffffffffffffffff16905081600a60016101000a81548173ffffffffffffffffffffffffffffffffffffffff021916908373ffffffffffffffffffffffffffffffffffffffff1602179055508173ffffffffffffffffffffffffffffffffffffffff168173ffffffffffffffffffffffffffffffffffffffff167f8be0079c531659141344cd1fd0a4f28419497f9722a3daafe3b4186f6b6457e060405160405180910390a35050565b61145d611c2c565b6001600a60006101000a81548160ff0219169083151502179055507f62e78cea01bee320cd4e420270b5ea74000d11b0c9f74754ebdbfc544b05a2586114a161124d565b6040516114ae9190612926565b60405180910390a1565b600073ffffffffffffffffffffffffffffffffffffffff168273ffffffffffffffffffffffffffffffffffffffff160361152957816040517f5b08ba180000000000000000000000000000000000000000000000000000000081526004016115209190612926565b60405180910390fd5b80600560008573ffffffffffffffffffffffffffffffffffffffff1673ffffffffffffffffffffffffffffffffffffffff16815260200190815260200160002060008473ffffffffffffffffffffffffffffffffffffffff1673ffffffffffffffffffffffffffffffffffffffff16815260200190815260200160002060006101000a81548160ff0219169083151502179055508173ffffffffffffffffffffffffffffffffffffffff168373ffffffffffffffffffffffffffffffffffffffff167f17307eab39ab6107e8899845ad3d59bd9653f200f220920489ca2b5937696c318360405161161a91906127b5565b60405180910390a3505050565b60008373ffffffffffffffffffffffffffffffffffffffff163b11156117d8578273ffffffffffffffffffffffffffffffffffffffff1663150b7a0261166b61124d565b8685856040518563ffffffff1660e01b815260040161168d9493929190613173565b6020604051808303816000875af19250505080156116c957506040513d601f19601f820116820180604052508101906116c691906131d4565b60015b61174d573d80600081146116f9576040519150601f19603f3d011682016040523d82523d6000602084013e6116fe565b606091505b50600081510361174557836040517f64a0ae9200000000000000000000000000000000000000000000000000000000815260040161173c9190612926565b60405180910390fd5b805181602001fd5b63150b7a0260e01b7bffffffffffffffffffffffffffffffffffffffffffffffffffffffff1916817bffffffffffffffffffffffffffffffffffffffffffffffffffffffff1916146117d657836040517f64a0ae920000000000000000000000000000000000000000000000000000000081526004016117cd9190612926565b60405180910390fd5b505b50505050565b606060405180606001604052806036815260200161329460369139905090565b60606000600161180d84611c6d565b01905060008167ffffffffffffffff81111561182c5761182b612bba565b5b6040519080825280601f01601f19166020018201604052801561185e5781602001600182028036833780820191505090505b509050600082602001820190505b6001156118c1578080600190039150507f3031323334353637383961626364656600000000000000000000000000000000600a86061a8153600a85816118b5576118b4613201565b5b0494506000850361186c575b819350505050919050565b60007f80ac58cd000000000000000000000000000000000000000000000000000000007bffffffffffffffffffffffffffffffffffffffffffffffffffffffff1916827bffffffffffffffffffffffffffffffffffffffffffffffffffffffff1916148061199757507f5b5e139f000000000000000000000000000000000000000000000000000000007bffffffffffffffffffffffffffffffffffffffffffffffffffffffff1916827bffffffffffffffffffffffffffffffffffffffffffffffffffffffff1916145b806119a757506119a682611dc0565b5b9050919050565b60006002600083815260200190815260200160002060009054906101000a900473ffffffffffffffffffffffffffffffffffffffff169050919050565b8080611a245750600073ffffffffffffffffffffffffffffffffffffffff168273ffffffffffffffffffffffffffffffffffffffff1614155b15611b58576000611a3484611188565b9050600073ffffffffffffffffffffffffffffffffffffffff168373ffffffffffffffffffffffffffffffffffffffff1614158015611a9f57508273ffffffffffffffffffffffffffffffffffffffff168173ffffffffffffffffffffffffffffffffffffffff1614155b8015611ab25750611ab08184610fee565b155b15611af457826040517fa9fbf51f000000000000000000000000000000000000000000000000000000008152600401611aeb9190612926565b60405180910390fd5b8115611b5657838573ffffffffffffffffffffffffffffffffffffffff168273ffffffffffffffffffffffffffffffffffffffff167f8c5be1e5ebec7d5bd14f71427d1e84f3dd0314c0f7b2291e5b200ac8c7c3b92560405160405180910390a45b505b836004600085815260200190815260200160002060006101000a81548173ffffffffffffffffffffffffffffffffffffffff021916908373ffffffffffffffffffffffffffffffffffffffff16021790555050505050565b611bca828260405180602001604052806000815250611e2a565b5050565b6000611bd8611c2c565b611be3848484611e46565b90509392505050565b611bf4610d74565b611c2a576040517f8dfc202b00000000000000000000000000000000000000000000000000000000815260040160405180910390fd5b565b611c34610d74565b15611c6b576040517fd93c066500000000000000000000000000000000000000000000000000000000815260040160405180910390fd5b565b600080600090507a184f03e93ff9f4daa797ed6e38ed64bf6a1f0100000000000000008310611ccb577a184f03e93ff9f4daa797ed6e38ed64bf6a1f0100000000000000008381611cc157611cc0613201565b5b0492506040810190505b6d04ee2d6d415b85acef81000000008310611d08576d04ee2d6d415b85acef81000000008381611cfe57611cfd613201565b5b0492506020810190505b662386f26fc100008310611d3757662386f26fc100008381611d2d57611d2c613201565b5b0492506010810190505b6305f5e1008310611d60576305f5e1008381611d5657611d55613201565b5b0492506008810190505b6127108310611d85576127108381611d7b57611d7a613201565b5b0492506004810190505b60648310611da85760648381611d9e57611d9d613201565b5b0492506002810190505b600a8310611db7576001810190505b80915050919050565b60007f01ffc9a7000000000000000000000000000000000000000000000000000000007bffffffffffffffffffffffffffffffffffffffffffffffffffffffff1916827bffffffffffffffffffffffffffffffffffffffffffffffffffffffff1916149050919050565b611e348383611f63565b611e416000848484611627565b505050565b600080611e5485858561205c565b9050600073ffffffffffffffffffffffffffffffffffffffff168173ffffffffffffffffffffffffffffffffffffffff1603611e9857611e9384612276565b611ed7565b8473ffffffffffffffffffffffffffffffffffffffff168173ffffffffffffffffffffffffffffffffffffffff1614611ed657611ed581856122bf565b5b5b600073ffffffffffffffffffffffffffffffffffffffff168573ffffffffffffffffffffffffffffffffffffffff1603611f1957611f1484612420565b611f58565b8473ffffffffffffffffffffffffffffffffffffffff168173ffffffffffffffffffffffffffffffffffffffff1614611f5757611f5685856124f1565b5b5b809150509392505050565b600073ffffffffffffffffffffffffffffffffffffffff168273ffffffffffffffffffffffffffffffffffffffff1603611fd55760006040517f64a0ae92000000000000000000000000000000000000000000000000000000008152600401611fcc9190612926565b60405180910390fd5b6000611fe38383600061128f565b9050600073ffffffffffffffffffffffffffffffffffffffff168173ffffffffffffffffffffffffffffffffffffffff16146120575760006040517f73c6ac6e00000000000000000000000000000000000000000000000000000000815260040161204e9190612926565b60405180910390fd5b505050565b600080612068846119ae565b9050600073ffffffffffffffffffffffffffffffffffffffff168373ffffffffffffffffffffffffffffffffffffffff16146120aa576120a981848661257c565b5b600073ffffffffffffffffffffffffffffffffffffffff168173ffffffffffffffffffffffffffffffffffffffff161461213b576120ec6000856000806119eb565b6001600360008373ffffffffffffffffffffffffffffffffffffffff1673ffffffffffffffffffffffffffffffffffffffff168152602001908152602001600020600082825403925050819055505b600073ffffffffffffffffffffffffffffffffffffffff168573ffffffffffffffffffffffffffffffffffffffff16146121be576001600360008773ffffffffffffffffffffffffffffffffffffffff1673ffffffffffffffffffffffffffffffffffffffff168152602001908152602001600020600082825401925050819055505b846002600086815260200190815260200160002060006101000a81548173ffffffffffffffffffffffffffffffffffffffff021916908373ffffffffffffffffffffffffffffffffffffffff160217905550838573ffffffffffffffffffffffffffffffffffffffff168273ffffffffffffffffffffffffffffffffffffffff167fddf252ad1be2c89b69c2b068fc378daa952ba7f163c4a11628f55a4df523b3ef60405160405180910390a4809150509392505050565b6008805490506009600083815260200190815260200160002081905550600881908060018154018082558091505060019003906000526020600020016000909190919091505550565b60006122ca83610d9d565b90506000600760008481526020019081526020016000205490508181146123af576000600660008673ffffffffffffffffffffffffffffffffffffffff1673ffffffffffffffffffffffffffffffffffffffff168152602001908152602001600020600084815260200190815260200160002054905080600660008773ffffffffffffffffffffffffffffffffffffffff1673ffffffffffffffffffffffffffffffffffffffff168152602001908152602001600020600084815260200190815260200160002081905550816007600083815260200190815260200160002081905550505b6007600084815260200190815260200160002060009055600660008573ffffffffffffffffffffffffffffffffffffffff1673ffffffffffffffffffffffffffffffffffffffff16815260200190815260200160002060008381526020019081526020016000206000905550505050565b600060016008805490506124349190613230565b905060006009600084815260200190815260200160002054905060006008838154811061246457612463613018565b5b90600052602060002001549050806008838154811061248657612485613018565b5b9060005260206000200181905550816009600083815260200190815260200160002081905550600960008581526020019081526020016000206000905560088054806124d5576124d4613264565b5b6001900381819060005260206000200160009055905550505050565b600060016124fe84610d9d565b6125089190613230565b905081600660008573ffffffffffffffffffffffffffffffffffffffff1673ffffffffffffffffffffffffffffffffffffffff168152602001908152602001600020600083815260200190815260200160002081905550806007600084815260200190815260200160002081905550505050565b612587838383612640565b61263b57600073ffffffffffffffffffffffffffffffffffffffff168373ffffffffffffffffffffffffffffffffffffffff16036125fc57806040517f7e2732890000000000000000000000000000000000000000000000000000000081526004016125f391906129bc565b60405180910390fd5b81816040517f177e802f000000000000000000000000000000000000000000000000000000008152600401612632929190612fef565b60405180910390fd5b505050565b60008073ffffffffffffffffffffffffffffffffffffffff168373ffffffffffffffffffffffffffffffffffffffff16141580156126f857508273ffffffffffffffffffffffffffffffffffffffff168473ffffffffffffffffffffffffffffffffffffffff1614806126b957506126b88484610fee565b5b806126f757508273ffffffffffffffffffffffffffffffffffffffff166126df83611210565b73ffffffffffffffffffffffffffffffffffffffff16145b5b90509392505050565b6000604051905090565b600080fd5b600080fd5b60007fffffffff0000000000000000000000000000000000000000000000000000000082169050919050565b61274a81612715565b811461275557600080fd5b50565b60008135905061276781612741565b92915050565b6000602082840312156127835761278261270b565b5b600061279184828501612758565b91505092915050565b60008115159050919050565b6127af8161279a565b82525050565b60006020820190506127ca60008301846127a6565b92915050565b600081519050919050565b600082825260208201905092915050565b60005b8381101561280a5780820151818401526020810190506127ef565b60008484015250505050565b6000601f19601f8301169050919050565b6000612832826127d0565b61283c81856127db565b935061284c8185602086016127ec565b61285581612816565b840191505092915050565b6000602082019050818103600083015261287a8184612827565b905092915050565b6000819050919050565b61289581612882565b81146128a057600080fd5b50565b6000813590506128b28161288c565b92915050565b6000602082840312156128ce576128cd61270b565b5b60006128dc848285016128a3565b91505092915050565b600073ffffffffffffffffffffffffffffffffffffffff82169050919050565b6000612910826128e5565b9050919050565b61292081612905565b82525050565b600060208201905061293b6000830184612917565b92915050565b61294a81612905565b811461295557600080fd5b50565b60008135905061296781612941565b92915050565b600080604083850312156129845761298361270b565b5b600061299285828601612958565b92505060206129a3858286016128a3565b9150509250929050565b6129b681612882565b82525050565b60006020820190506129d160008301846129ad565b92915050565b6000806000606084860312156129f0576129ef61270b565b5b60006129fe86828701612958565b9350506020612a0f86828701612958565b9250506040612a20868287016128a3565b9150509250925092565b612a338161279a565b8114612a3e57600080fd5b50565b600081359050612a5081612a2a565b92915050565b60008060408385031215612a6d57612a6c61270b565b5b6000612a7b85828601612a41565b9250506020612a8c85828601612a41565b9150509250929050565b600060208284031215612aac57612aab61270b565b5b6000612aba84828501612958565b91505092915050565b600080fd5b600080fd5b600080fd5b60008083601f840112612ae857612ae7612ac3565b5b8235905067ffffffffffffffff811115612b0557612b04612ac8565b5b602083019150836020820283011115612b2157612b20612acd565b5b9250929050565b60008060208385031215612b3f57612b3e61270b565b5b600083013567ffffffffffffffff811115612b5d57612b5c612710565b5b612b6985828601612ad2565b92509250509250929050565b60008060408385031215612b8c57612b8b61270b565b5b6000612b9a85828601612958565b9250506020612bab85828601612a41565b9150509250929050565b600080fd5b7f4e487b7100000000000000000000000000000000000000000000000000000000600052604160045260246000fd5b612bf282612816565b810181811067ffffffffffffffff82111715612c1157612c10612bba565b5b80604052505050565b6000612c24612701565b9050612c308282612be9565b919050565b600067ffffffffffffffff821115612c5057612c4f612bba565b5b612c5982612816565b9050602081019050919050565b82818337600083830152505050565b6000612c88612c8384612c35565b612c1a565b905082815260208101848484011115612ca457612ca3612bb5565b5b612caf848285612c66565b509392505050565b600082601f830112612ccc57612ccb612ac3565b5b8135612cdc848260208601612c75565b91505092915050565b60008060008060808587031215612cff57612cfe61270b565b5b6000612d0d87828801612958565b9450506020612d1e87828801612958565b9350506040612d2f878288016128a3565b925050606085013567ffffffffffffffff811115612d5057612d4f612710565b5b612d5c87828801612cb7565b91505092959194509250565b60008060408385031215612d7f57612d7e61270b565b5b6000612d8d85828601612958565b9250506020612d9e85828601612958565b9150509250929050565b7f4e487b7100000000000000000000000000000000000000000000000000000000600052602260045260246000fd5b60006002820490506001821680612def57607f821691505b602082108103612e0257612e01612da8565b5b50919050565b7f616c6c6f77206d696e7420636c6f736564000000000000000000000000000000600082015250565b6000612e3e6011836127db565b9150612e4982612e08565b602082019050919050565b60006020820190508181036000830152612e6d81612e31565b9050919050565b7f4e6f7420656e6f7567682066756e647300000000000000000000000000000000600082015250565b6000612eaa6010836127db565b9150612eb582612e74565b602082019050919050565b60006020820190508181036000830152612ed981612e9d565b9050919050565b7f4e6f206d6f726520537570706c79000000000000000000000000000000000000600082015250565b6000612f16600e836127db565b9150612f2182612ee0565b602082019050919050565b60006020820190508181036000830152612f4581612f09565b9050919050565b6000606082019050612f616000830186612917565b612f6e60208301856129ad565b612f7b6040830184612917565b949350505050565b7f7075626c6963206d696e7420636c6f7365640000000000000000000000000000600082015250565b6000612fb96012836127db565b9150612fc482612f83565b602082019050919050565b60006020820190508181036000830152612fe881612fac565b9050919050565b60006040820190506130046000830185612917565b61301160208301846129ad565b9392505050565b7f4e487b7100000000000000000000000000000000000000000000000000000000600052603260045260246000fd5b600081905092915050565b600061305d826127d0565b6130678185613047565b93506130778185602086016127ec565b80840191505092915050565b600061308f8285613052565b915061309b8284613052565b91508190509392505050565b7f4e487b7100000000000000000000000000000000000000000000000000000000600052601160045260246000fd5b60006130e182612882565b91507fffffffffffffffffffffffffffffffffffffffffffffffffffffffffffffffff8203613113576131126130a7565b5b600182019050919050565b600081519050919050565b600082825260208201905092915050565b60006131458261311e565b61314f8185613129565b935061315f8185602086016127ec565b61316881612816565b840191505092915050565b60006080820190506131886000830187612917565b6131956020830186612917565b6131a260408301856129ad565b81810360608301526131b4818461313a565b905095945050505050565b6000815190506131ce81612741565b92915050565b6000602082840312156131ea576131e961270b565b5b60006131f8848285016131bf565b91505092915050565b7f4e487b7100000000000000000000000000000000000000000000000000000000600052601260045260246000fd5b600061323b82612882565b915061324683612882565b925082820390508181111561325e5761325d6130a7565b5b92915050565b7f4e487b7100000000000000000000000000000000000000000000000000000000600052603160045260246000fdfe697066733a2f2f516d593572507147544e31725a784d516732417069535a63374a69424e73317279447a58505a705168433169626d2fa26469706673582212205648830fee071860141f3f35ef6c3fbdeb63212bf6127bd8035e4f17e7222b2364736f6c63430008180033",
  "linkReferences": {},
  "deployedLinkReferences": {}
}