{
  "_format": "hh-sol-artifact-1",
  "contractName": "DaGeniusToken",
  "sourceName": "contracts/practice-erc/DaGeniusToken.sol",
  "abi": [
    {
      "inputs": [],
      "stateMutability": "nonpayable",
      "type": "constructor"
    },
    {
      "inputs": [
        {
          "internalType": "address",
          "name": "sender",
          "type": "address"
        },
        {
          "internalType": "uint256",
          "name": "balance",
          "type": "uint256"
        },
        {
          "internalType": "uint256",
          "name": "needed",
          "type": "uint256"
        },
        {
          "internalType": "uint256",
          "name": "tokenId",
          "type": "uint256"
        }
      ],
      "name": "ERC1155InsufficientBalance",
      "type": "error"
    },
    {
      "inputs": [
        {
          "internalType": "address",
          "name": "approver",
          "type": "address"
        }
      ],
      "name": "ERC1155InvalidApprover",
      "type": "error"
    },
    {
      "inputs": [
        {
          "internalType": "uint256",
          "name": "idsLength",
          "type": "uint256"
        },
        {
          "internalType": "uint256",
          "name": "valuesLength",
          "type": "uint256"
        }
      ],
      "name": "ERC1155InvalidArrayLength",
      "type": "error"
    },
    {
      "inputs": [
        {
          "internalType": "address",
          "name": "operator",
          "type": "address"
        }
      ],
      "name": "ERC1155InvalidOperator",
      "type": "error"
    },
    {
      "inputs": [
        {
          "internalType": "address",
          "name": "receiver",
          "type": "address"
        }
      ],
      "name": "ERC1155InvalidReceiver",
      "type": "error"
    },
    {
      "inputs": [
        {
          "internalType": "address",
          "name": "sender",
          "type": "address"
        }
      ],
      "name": "ERC1155InvalidSender",
      "type": "error"
    },
    {
      "inputs": [
        {
          "internalType": "address",
          "name": "operator",
          "type": "address"
        },
        {
          "internalType": "address",
          "name": "owner",
          "type": "address"
        }
      ],
      "name": "ERC1155MissingApprovalForAll",
      "type": "error"
    },
    {
      "inputs": [],
      "name": "EnforcedPause",
      "type": "error"
    },
    {
      "inputs": [],
      "name": "ExpectedPause",
      "type": "error"
    },
    {
      "inputs": [
        {
          "internalType": "address",
          "name": "owner",
          "type": "address"
        }
      ],
      "name": "OwnableInvalidOwner",
      "type": "error"
    },
    {
      "inputs": [
        {
          "internalType": "address",
          "name": "account",
          "type": "address"
        }
      ],
      "name": "OwnableUnauthorizedAccount",
      "type": "error"
    },
    {
      "anonymous": false,
      "inputs": [
        {
          "indexed": true,
          "internalType": "address",
          "name": "account",
          "type": "address"
        },
        {
          "indexed": true,
          "internalType": "address",
          "name": "operator",
          "type": "address"
        },
        {
          "indexed": false,
          "internalType": "bool",
          "name": "approved",
          "type": "bool"
        }
      ],
      "name": "ApprovalForAll",
      "type": "event"
    },
    {
      "anonymous": false,
      "inputs": [],
      "name": "MintSuccessful",
      "type": "event"
    },
    {
      "anonymous": false,
      "inputs": [
        {
          "indexed": true,
          "internalType": "address",
          "name": "previousOwner",
          "type": "address"
        },
        {
          "indexed": true,
          "internalType": "address",
          "name": "newOwner",
          "type": "address"
        }
      ],
      "name": "OwnershipTransferred",
      "type": "event"
    },
    {
      "anonymous": false,
      "inputs": [
        {
          "indexed": false,
          "internalType": "address",
          "name": "account",
          "type": "address"
        }
      ],
      "name": "Paused",
      "type": "event"
    },
    {
      "anonymous": false,
      "inputs": [
        {
          "indexed": true,
          "internalType": "address",
          "name": "operator",
          "type": "address"
        },
        {
          "indexed": true,
          "internalType": "address",
          "name": "from",
          "type": "address"
        },
        {
          "indexed": true,
          "internalType": "address",
          "name": "to",
          "type": "address"
        },
        {
          "indexed": false,
          "internalType": "uint256[]",
          "name": "ids",
          "type": "uint256[]"
        },
        {
          "indexed": false,
          "internalType": "uint256[]",
          "name": "values",
          "type": "uint256[]"
        }
      ],
      "name": "TransferBatch",
      "type": "event"
    },
    {
      "anonymous": false,
      "inputs": [
        {
          "indexed": true,
          "internalType": "address",
          "name": "operator",
          "type": "address"
        },
        {
          "indexed": true,
          "internalType": "address",
          "name": "from",
          "type": "address"
        },
        {
          "indexed": true,
          "internalType": "address",
          "name": "to",
          "type": "address"
        },
        {
          "indexed": false,
          "internalType": "uint256",
          "name": "id",
          "type": "uint256"
        },
        {
          "indexed": false,
          "internalType": "uint256",
          "name": "value",
          "type": "uint256"
        }
      ],
      "name": "TransferSingle",
      "type": "event"
    },
    {
      "anonymous": false,
      "inputs": [
        {
          "indexed": false,
          "internalType": "string",
          "name": "value",
          "type": "string"
        },
        {
          "indexed": true,
          "internalType": "uint256",
          "name": "id",
          "type": "uint256"
        }
      ],
      "name": "URI",
      "type": "event"
    },
    {
      "anonymous": false,
      "inputs": [
        {
          "indexed": false,
          "internalType": "address",
          "name": "account",
          "type": "address"
        }
      ],
      "name": "Unpaused",
      "type": "event"
    },
    {
      "inputs": [
        {
          "internalType": "address",
          "name": "account",
          "type": "address"
        },
        {
          "internalType": "uint256",
          "name": "id",
          "type": "uint256"
        }
      ],
      "name": "balanceOf",
      "outputs": [
        {
          "internalType": "uint256",
          "name": "",
          "type": "uint256"
        }
      ],
      "stateMutability": "view",
      "type": "function"
    },
    {
      "inputs": [
        {
          "internalType": "address[]",
          "name": "accounts",
          "type": "address[]"
        },
        {
          "internalType": "uint256[]",
          "name": "ids",
          "type": "uint256[]"
        }
      ],
      "name": "balanceOfBatch",
      "outputs": [
        {
          "internalType": "uint256[]",
          "name": "",
          "type": "uint256[]"
        }
      ],
      "stateMutability": "view",
      "type": "function"
    },
    {
      "inputs": [
        {
          "internalType": "uint256",
          "name": "id",
          "type": "uint256"
        }
      ],
      "name": "exists",
      "outputs": [
        {
          "internalType": "bool",
          "name": "",
          "type": "bool"
        }
      ],
      "stateMutability": "view",
      "type": "function"
    },
    {
      "inputs": [
        {
          "internalType": "address",
          "name": "account",
          "type": "address"
        },
        {
          "internalType": "address",
          "name": "operator",
          "type": "address"
        }
      ],
      "name": "isApprovedForAll",
      "outputs": [
        {
          "internalType": "bool",
          "name": "",
          "type": "bool"
        }
      ],
      "stateMutability": "view",
      "type": "function"
    },
    {
      "inputs": [],
      "name": "maxSupply",
      "outputs": [
        {
          "internalType": "uint256",
          "name": "",
          "type": "uint256"
        }
      ],
      "stateMutability": "view",
      "type": "function"
    },
    {
      "inputs": [
        {
          "internalType": "uint256",
          "name": "id",
          "type": "uint256"
        },
        {
          "internalType": "uint256",
          "name": "amount",
          "type": "uint256"
        }
      ],
      "name": "mint",
      "outputs": [],
      "stateMutability": "payable",
      "type": "function"
    },
    {
      "inputs": [
        {
          "internalType": "address",
          "name": "to",
          "type": "address"
        },
        {
          "internalType": "uint256[]",
          "name": "ids",
          "type": "uint256[]"
        },
        {
          "internalType": "uint256[]",
          "name": "amounts",
          "type": "uint256[]"
        },
        {
          "internalType": "bytes",
          "name": "data",
          "type": "bytes"
        }
      ],
      "name": "mintBatch",
      "outputs": [],
      "stateMutability": "nonpayable",
      "type": "function"
    },
    {
      "inputs": [],
      "name": "owner",
      "outputs": [
        {
          "internalType": "address",
          "name": "",
          "type": "address"
        }
      ],
      "stateMutability": "view",
      "type": "function"
    },
    {
      "inputs": [],
      "name": "pause",
      "outputs": [],
      "stateMutability": "nonpayable",
      "type": "function"
    },
    {
      "inputs": [],
      "name": "paused",
      "outputs": [
        {
          "internalType": "bool",
          "name": "",
          "type": "bool"
        }
      ],
      "stateMutability": "view",
      "type": "function"
    },
    {
      "inputs": [],
      "name": "publishedPrice",
      "outputs": [
        {
          "internalType": "uint256",
          "name": "",
          "type": "uint256"
        }
      ],
      "stateMutability": "view",
      "type": "function"
    },
    {
      "inputs": [],
      "name": "renounceOwnership",
      "outputs": [],
      "stateMutability": "nonpayable",
      "type": "function"
    },
    {
      "inputs": [
        {
          "internalType": "address",
          "name": "from",
          "type": "address"
        },
        {
          "internalType": "address",
          "name": "to",
          "type": "address"
        },
        {
          "internalType": "uint256[]",
          "name": "ids",
          "type": "uint256[]"
        },
        {
          "internalType": "uint256[]",
          "name": "values",
          "type": "uint256[]"
        },
        {
          "internalType": "bytes",
          "name": "data",
          "type": "bytes"
        }
      ],
      "name": "safeBatchTransferFrom",
      "outputs": [],
      "stateMutability": "nonpayable",
      "type": "function"
    },
    {
      "inputs": [
        {
          "internalType": "address",
          "name": "from",
          "type": "address"
        },
        {
          "internalType": "address",
          "name": "to",
          "type": "address"
        },
        {
          "internalType": "uint256",
          "name": "id",
          "type": "uint256"
        },
        {
          "internalType": "uint256",
          "name": "value",
          "type": "uint256"
        },
        {
          "internalType": "bytes",
          "name": "data",
          "type": "bytes"
        }
      ],
      "name": "safeTransferFrom",
      "outputs": [],
      "stateMutability": "nonpayable",
      "type": "function"
    },
    {
      "inputs": [
        {
          "internalType": "address",
          "name": "operator",
          "type": "address"
        },
        {
          "internalType": "bool",
          "name": "approved",
          "type": "bool"
        }
      ],
      "name": "setApprovalForAll",
      "outputs": [],
      "stateMutability": "nonpayable",
      "type": "function"
    },
    {
      "inputs": [
        {
          "internalType": "string",
          "name": "newuri",
          "type": "string"
        }
      ],
      "name": "setURI",
      "outputs": [],
      "stateMutability": "nonpayable",
      "type": "function"
    },
    {
      "inputs": [
        {
          "internalType": "bytes4",
          "name": "interfaceId",
          "type": "bytes4"
        }
      ],
      "name": "supportsInterface",
      "outputs": [
        {
          "internalType": "bool",
          "name": "",
          "type": "bool"
        }
      ],
      "stateMutability": "view",
      "type": "function"
    },
    {
      "inputs": [],
      "name": "totalSupply",
      "outputs": [
        {
          "internalType": "uint256",
          "name": "",
          "type": "uint256"
        }
      ],
      "stateMutability": "view",
      "type": "function"
    },
    {
      "inputs": [
        {
          "internalType": "uint256",
          "name": "id",
          "type": "uint256"
        }
      ],
      "name": "totalSupply",
      "outputs": [
        {
          "internalType": "uint256",
          "name": "",
          "type": "uint256"
        }
      ],
      "stateMutability": "view",
      "type": "function"
    },
    {
      "inputs": [
        {
          "internalType": "address",
          "name": "newOwner",
          "type": "address"
        }
      ],
      "name": "transferOwnership",
      "outputs": [],
      "stateMutability": "nonpayable",
      "type": "function"
    },
    {
      "inputs": [],
      "name": "unpause",
      "outputs": [],
      "stateMutability": "nonpayable",
      "type": "function"
    },
    {
      "inputs": [
        {
          "internalType": "uint256",
          "name": "_id",
          "type": "uint256"
        }
      ],
      "name": "uri",
      "outputs": [
        {
          "internalType": "string",
          "name": "",
          "type": "string"
        }
      ],
      "stateMutability": "view",
      "type": "function"
    }
  ],
  "bytecode": "0x6080604052655af3107a400060065560056007553480156200002057600080fd5b50336040518060600160405280603681526020016200397b603691396200004d81620000f660201b60201c565b50600073ffffffffffffffffffffffffffffffffffffffff168173ffffffffffffffffffffffffffffffffffffffff1603620000c35760006040517f1e4fbdf7000000000000000000000000000000000000000000000000000000008152600401620000ba919062000216565b60405180910390fd5b620000d4816200010b60201b60201c565b506000600360146101000a81548160ff02191690831515021790555062000594565b8060029081620001079190620004ad565b5050565b6000600360009054906101000a900473ffffffffffffffffffffffffffffffffffffffff16905081600360006101000a81548173ffffffffffffffffffffffffffffffffffffffff021916908373ffffffffffffffffffffffffffffffffffffffff1602179055508173ffffffffffffffffffffffffffffffffffffffff168173ffffffffffffffffffffffffffffffffffffffff167f8be0079c531659141344cd1fd0a4f28419497f9722a3daafe3b4186f6b6457e060405160405180910390a35050565b600073ffffffffffffffffffffffffffffffffffffffff82169050919050565b6000620001fe82620001d1565b9050919050565b6200021081620001f1565b82525050565b60006020820190506200022d600083018462000205565b92915050565b600081519050919050565b7f4e487b7100000000000000000000000000000000000000000000000000000000600052604160045260246000fd5b7f4e487b7100000000000000000000000000000000000000000000000000000000600052602260045260246000fd5b60006002820490506001821680620002b557607f821691505b602082108103620002cb57620002ca6200026d565b5b50919050565b60008190508160005260206000209050919050565b60006020601f8301049050919050565b600082821b905092915050565b600060088302620003357fffffffffffffffffffffffffffffffffffffffffffffffffffffffffffffffff82620002f6565b620003418683620002f6565b95508019841693508086168417925050509392505050565b6000819050919050565b6000819050919050565b60006200038e62000388620003828462000359565b62000363565b62000359565b9050919050565b6000819050919050565b620003aa836200036d565b620003c2620003b98262000395565b84845462000303565b825550505050565b600090565b620003d9620003ca565b620003e68184846200039f565b505050565b5b818110156200040e5762000402600082620003cf565b600181019050620003ec565b5050565b601f8211156200045d576200042781620002d1565b6200043284620002e6565b8101602085101562000442578190505b6200045a6200045185620002e6565b830182620003eb565b50505b505050565b600082821c905092915050565b6000620004826000198460080262000462565b1980831691505092915050565b60006200049d83836200046f565b9150826002028217905092915050565b620004b88262000233565b67ffffffffffffffff811115620004d457620004d36200023e565b5b620004e082546200029c565b620004ed82828562000412565b600060209050601f83116001811462000525576000841562000510578287015190505b6200051c85826200048f565b8655506200058c565b601f1984166200053586620002d1565b60005b828110156200055f5784890151825560018201915060208501945060208101905062000538565b868310156200057f57848901516200057b601f8916826200046f565b8355505b6001600288020188555050505b505050505050565b6133d780620005a46000396000f3fe6080604052600436106101345760003560e01c80635c975abb116100ab578063a22cb4651161006f578063a22cb465146103f2578063bd85b0391461041b578063d5abeb0114610458578063e985e9c514610483578063f242432a146104c0578063f2fde38b146104e957610134565b80635c975abb14610343578063715018a61461036e5780638456cb5914610385578063893effef1461039c5780638da5cb5b146103c757610134565b80631b2ef1ca116100fd5780631b2ef1ca146102445780631f7fdffa146102605780632eb2c2d6146102895780633f4ba83a146102b25780634e1273f4146102c95780634f558e791461030657610134565b8062fdd58e1461013957806301ffc9a71461017657806302fe5305146101b35780630e89341c146101dc57806318160ddd14610219575b600080fd5b34801561014557600080fd5b50610160600480360381019061015b9190612134565b610512565b60405161016d9190612183565b60405180910390f35b34801561018257600080fd5b5061019d600480360381019061019891906121f6565b61056c565b6040516101aa919061223e565b60405180910390f35b3480156101bf57600080fd5b506101da60048036038101906101d5919061239f565b61064e565b005b3480156101e857600080fd5b5061020360048036038101906101fe91906123e8565b610662565b6040516102109190612494565b60405180910390f35b34801561022557600080fd5b5061022e6106e5565b60405161023b9190612183565b60405180910390f35b61025e600480360381019061025991906124b6565b6106ef565b005b34801561026c57600080fd5b506102876004803603810190610282919061265f565b6107e2565b005b34801561029557600080fd5b506102b060048036038101906102ab919061271a565b6107fc565b005b3480156102be57600080fd5b506102c76108a4565b005b3480156102d557600080fd5b506102f060048036038101906102eb91906128ac565b6108b6565b6040516102fd91906129e2565b60405180910390f35b34801561031257600080fd5b5061032d600480360381019061032891906123e8565b6109bf565b60405161033a919061223e565b60405180910390f35b34801561034f57600080fd5b506103586109d3565b604051610365919061223e565b60405180910390f35b34801561037a57600080fd5b506103836109ea565b005b34801561039157600080fd5b5061039a6109fe565b005b3480156103a857600080fd5b506103b1610a10565b6040516103be9190612183565b60405180910390f35b3480156103d357600080fd5b506103dc610a16565b6040516103e99190612a13565b60405180910390f35b3480156103fe57600080fd5b5061041960048036038101906104149190612a5a565b610a40565b005b34801561042757600080fd5b50610442600480360381019061043d91906123e8565b610a56565b60405161044f9190612183565b60405180910390f35b34801561046457600080fd5b5061046d610a73565b60405161047a9190612183565b60405180910390f35b34801561048f57600080fd5b506104aa60048036038101906104a59190612a9a565b610a79565b6040516104b7919061223e565b60405180910390f35b3480156104cc57600080fd5b506104e760048036038101906104e29190612ada565b610b0d565b005b3480156104f557600080fd5b50610510600480360381019061050b9190612b71565b610bb5565b005b600080600083815260200190815260200160002060008473ffffffffffffffffffffffffffffffffffffffff1673ffffffffffffffffffffffffffffffffffffffff16815260200190815260200160002054905092915050565b60007fd9b67a26000000000000000000000000000000000000000000000000000000007bffffffffffffffffffffffffffffffffffffffffffffffffffffffff1916827bffffffffffffffffffffffffffffffffffffffffffffffffffffffff1916148061063757507f0e89341c000000000000000000000000000000000000000000000000000000007bffffffffffffffffffffffffffffffffffffffffffffffffffffffff1916827bffffffffffffffffffffffffffffffffffffffffffffffffffffffff1916145b80610647575061064682610c3b565b5b9050919050565b610656610ca5565b61065f81610d2c565b50565b606061066d826109bf565b6106ac576040517f08c379a00000000000000000000000000000000000000000000000000000000081526004016106a390612bea565b60405180910390fd5b6106b582610d3f565b6106be83610dd3565b6040516020016106cf929190612c92565b6040516020818303038152906040529050919050565b6000600554905090565b600754816106fc84610a56565b6107069190612cf0565b1115610747576040517f08c379a000000000000000000000000000000000000000000000000000000000815260040161073e90612d70565b60405180910390fd5b806006546107559190612d90565b341015610797576040517f08c379a000000000000000000000000000000000000000000000000000000000815260040161078e90612e1e565b60405180910390fd5b6107b233838360405180602001604052806000815250610ea1565b7f0ca5161750a7366e510e00df5728d8a3d1d01370fc496929f9d28d4c56705be460405160405180910390a15050565b6107ea610ca5565b6107f684848484610f3a565b50505050565b6000610806610fc0565b90508073ffffffffffffffffffffffffffffffffffffffff168673ffffffffffffffffffffffffffffffffffffffff161415801561084b57506108498682610a79565b155b1561088f5780866040517fe237d922000000000000000000000000000000000000000000000000000000008152600401610886929190612e3e565b60405180910390fd5b61089c8686868686610fc8565b505050505050565b6108ac610ca5565b6108b46110c0565b565b6060815183511461090257815183516040517f5b0599910000000000000000000000000000000000000000000000000000000081526004016108f9929190612e67565b60405180910390fd5b6000835167ffffffffffffffff81111561091f5761091e612274565b5b60405190808252806020026020018201604052801561094d5781602001602082028036833780820191505090505b50905060005b84518110156109b45761098a610972828761112390919063ffffffff16565b610985838761113790919063ffffffff16565b610512565b82828151811061099d5761099c612e90565b5b602002602001018181525050806001019050610953565b508091505092915050565b6000806109cb83610a56565b119050919050565b6000600360149054906101000a900460ff16905090565b6109f2610ca5565b6109fc600061114b565b565b610a06610ca5565b610a0e611211565b565b60065481565b6000600360009054906101000a900473ffffffffffffffffffffffffffffffffffffffff16905090565b610a52610a4b610fc0565b8383611274565b5050565b600060046000838152602001908152602001600020549050919050565b60075481565b6000600160008473ffffffffffffffffffffffffffffffffffffffff1673ffffffffffffffffffffffffffffffffffffffff16815260200190815260200160002060008373ffffffffffffffffffffffffffffffffffffffff1673ffffffffffffffffffffffffffffffffffffffff16815260200190815260200160002060009054906101000a900460ff16905092915050565b6000610b17610fc0565b90508073ffffffffffffffffffffffffffffffffffffffff168673ffffffffffffffffffffffffffffffffffffffff1614158015610b5c5750610b5a8682610a79565b155b15610ba05780866040517fe237d922000000000000000000000000000000000000000000000000000000008152600401610b97929190612e3e565b60405180910390fd5b610bad86868686866113e4565b505050505050565b610bbd610ca5565b600073ffffffffffffffffffffffffffffffffffffffff168173ffffffffffffffffffffffffffffffffffffffff1603610c2f5760006040517f1e4fbdf7000000000000000000000000000000000000000000000000000000008152600401610c269190612a13565b60405180910390fd5b610c388161114b565b50565b60007f01ffc9a7000000000000000000000000000000000000000000000000000000007bffffffffffffffffffffffffffffffffffffffffffffffffffffffff1916827bffffffffffffffffffffffffffffffffffffffffffffffffffffffff1916149050919050565b610cad610fc0565b73ffffffffffffffffffffffffffffffffffffffff16610ccb610a16565b73ffffffffffffffffffffffffffffffffffffffff1614610d2a57610cee610fc0565b6040517f118cdaa7000000000000000000000000000000000000000000000000000000008152600401610d219190612a13565b60405180910390fd5b565b8060029081610d3b91906130cb565b5050565b606060028054610d4e90612eee565b80601f0160208091040260200160405190810160405280929190818152602001828054610d7a90612eee565b8015610dc75780601f10610d9c57610100808354040283529160200191610dc7565b820191906000526020600020905b815481529060010190602001808311610daa57829003601f168201915b50505050509050919050565b606060006001610de2846114ef565b01905060008167ffffffffffffffff811115610e0157610e00612274565b5b6040519080825280601f01601f191660200182016040528015610e335781602001600182028036833780820191505090505b509050600082602001820190505b600115610e96578080600190039150507f3031323334353637383961626364656600000000000000000000000000000000600a86061a8153600a8581610e8a57610e8961319d565b5b04945060008503610e41575b819350505050919050565b600073ffffffffffffffffffffffffffffffffffffffff168473ffffffffffffffffffffffffffffffffffffffff1603610f135760006040517f57f447ce000000000000000000000000000000000000000000000000000000008152600401610f0a9190612a13565b60405180910390fd5b600080610f208585611642565b91509150610f32600087848487611672565b505050505050565b600073ffffffffffffffffffffffffffffffffffffffff168473ffffffffffffffffffffffffffffffffffffffff1603610fac5760006040517f57f447ce000000000000000000000000000000000000000000000000000000008152600401610fa39190612a13565b60405180910390fd5b610fba600085858585611672565b50505050565b600033905090565b600073ffffffffffffffffffffffffffffffffffffffff168473ffffffffffffffffffffffffffffffffffffffff160361103a5760006040517f57f447ce0000000000000000000000000000000000000000000000000000000081526004016110319190612a13565b60405180910390fd5b600073ffffffffffffffffffffffffffffffffffffffff168573ffffffffffffffffffffffffffffffffffffffff16036110ac5760006040517f01a835140000000000000000000000000000000000000000000000000000000081526004016110a39190612a13565b60405180910390fd5b6110b98585858585611672565b5050505050565b6110c8611724565b6000600360146101000a81548160ff0219169083151502179055507f5db9ee0a495bf2e6ff9c91a7834c1ba4fdd244a5e8aa4e537bd38aeae4b073aa61110c610fc0565b6040516111199190612a13565b60405180910390a1565b600060208202602084010151905092915050565b600060208202602084010151905092915050565b6000600360009054906101000a900473ffffffffffffffffffffffffffffffffffffffff16905081600360006101000a81548173ffffffffffffffffffffffffffffffffffffffff021916908373ffffffffffffffffffffffffffffffffffffffff1602179055508173ffffffffffffffffffffffffffffffffffffffff168173ffffffffffffffffffffffffffffffffffffffff167f8be0079c531659141344cd1fd0a4f28419497f9722a3daafe3b4186f6b6457e060405160405180910390a35050565b611219611764565b6001600360146101000a81548160ff0219169083151502179055507f62e78cea01bee320cd4e420270b5ea74000d11b0c9f74754ebdbfc544b05a25861125d610fc0565b60405161126a9190612a13565b60405180910390a1565b600073ffffffffffffffffffffffffffffffffffffffff168273ffffffffffffffffffffffffffffffffffffffff16036112e65760006040517fced3e1000000000000000000000000000000000000000000000000000000000081526004016112dd9190612a13565b60405180910390fd5b80600160008573ffffffffffffffffffffffffffffffffffffffff1673ffffffffffffffffffffffffffffffffffffffff16815260200190815260200160002060008473ffffffffffffffffffffffffffffffffffffffff1673ffffffffffffffffffffffffffffffffffffffff16815260200190815260200160002060006101000a81548160ff0219169083151502179055508173ffffffffffffffffffffffffffffffffffffffff168373ffffffffffffffffffffffffffffffffffffffff167f17307eab39ab6107e8899845ad3d59bd9653f200f220920489ca2b5937696c31836040516113d7919061223e565b60405180910390a3505050565b600073ffffffffffffffffffffffffffffffffffffffff168473ffffffffffffffffffffffffffffffffffffffff16036114565760006040517f57f447ce00000000000000000000000000000000000000000000000000000000815260040161144d9190612a13565b60405180910390fd5b600073ffffffffffffffffffffffffffffffffffffffff168573ffffffffffffffffffffffffffffffffffffffff16036114c85760006040517f01a835140000000000000000000000000000000000000000000000000000000081526004016114bf9190612a13565b60405180910390fd5b6000806114d58585611642565b915091506114e68787848487611672565b50505050505050565b600080600090507a184f03e93ff9f4daa797ed6e38ed64bf6a1f010000000000000000831061154d577a184f03e93ff9f4daa797ed6e38ed64bf6a1f01000000000000000083816115435761154261319d565b5b0492506040810190505b6d04ee2d6d415b85acef8100000000831061158a576d04ee2d6d415b85acef810000000083816115805761157f61319d565b5b0492506020810190505b662386f26fc1000083106115b957662386f26fc1000083816115af576115ae61319d565b5b0492506010810190505b6305f5e10083106115e2576305f5e10083816115d8576115d761319d565b5b0492506008810190505b61271083106116075761271083816115fd576115fc61319d565b5b0492506004810190505b6064831061162a57606483816116205761161f61319d565b5b0492506002810190505b600a8310611639576001810190505b80915050919050565b60608060405191506001825283602083015260408201905060018152826020820152604081016040529250929050565b61167e858585856117a5565b600073ffffffffffffffffffffffffffffffffffffffff168473ffffffffffffffffffffffffffffffffffffffff161461171d5760006116bc610fc0565b9050600184510361170c5760006116dd60008661113790919063ffffffff16565b905060006116f560008661113790919063ffffffff16565b90506117058389898585896117b7565b505061171b565b61171a81878787878761196b565b5b505b5050505050565b61172c6109d3565b611762576040517f8dfc202b00000000000000000000000000000000000000000000000000000000815260040160405180910390fd5b565b61176c6109d3565b156117a3576040517fd93c066500000000000000000000000000000000000000000000000000000000815260040160405180910390fd5b565b6117b184848484611b1f565b50505050565b60008473ffffffffffffffffffffffffffffffffffffffff163b1115611963578373ffffffffffffffffffffffffffffffffffffffff1663f23a6e6187878686866040518663ffffffff1660e01b8152600401611818959493929190613221565b6020604051808303816000875af192505050801561185457506040513d601f19601f820116820180604052508101906118519190613290565b60015b6118d8573d8060008114611884576040519150601f19603f3d011682016040523d82523d6000602084013e611889565b606091505b5060008151036118d057846040517f57f447ce0000000000000000000000000000000000000000000000000000000081526004016118c79190612a13565b60405180910390fd5b805181602001fd5b63f23a6e6160e01b7bffffffffffffffffffffffffffffffffffffffffffffffffffffffff1916817bffffffffffffffffffffffffffffffffffffffffffffffffffffffff19161461196157846040517f57f447ce0000000000000000000000000000000000000000000000000000000081526004016119589190612a13565b60405180910390fd5b505b505050505050565b60008473ffffffffffffffffffffffffffffffffffffffff163b1115611b17578373ffffffffffffffffffffffffffffffffffffffff1663bc197c8187878686866040518663ffffffff1660e01b81526004016119cc9594939291906132bd565b6020604051808303816000875af1925050508015611a0857506040513d601f19601f82011682018060405250810190611a059190613290565b60015b611a8c573d8060008114611a38576040519150601f19603f3d011682016040523d82523d6000602084013e611a3d565b606091505b506000815103611a8457846040517f57f447ce000000000000000000000000000000000000000000000000000000008152600401611a7b9190612a13565b60405180910390fd5b805181602001fd5b63bc197c8160e01b7bffffffffffffffffffffffffffffffffffffffffffffffffffffffff1916817bffffffffffffffffffffffffffffffffffffffffffffffffffffffff191614611b1557846040517f57f447ce000000000000000000000000000000000000000000000000000000008152600401611b0c9190612a13565b60405180910390fd5b505b505050505050565b611b2b84848484611cca565b600073ffffffffffffffffffffffffffffffffffffffff168473ffffffffffffffffffffffffffffffffffffffff1603611c05576000805b8351811015611be9576000838281518110611b8157611b80612e90565b5b602002602001015190508060046000878581518110611ba357611ba2612e90565b5b602002602001015181526020019081526020016000206000828254611bc89190612cf0565b925050819055508083611bdb9190612cf0565b925050806001019050611b63565b508060056000828254611bfc9190612cf0565b92505081905550505b600073ffffffffffffffffffffffffffffffffffffffff168373ffffffffffffffffffffffffffffffffffffffff1603611cc4576000805b8351811015611cb1576000838281518110611c5b57611c5a612e90565b5b602002602001015190508060046000878581518110611c7d57611c7c612e90565b5b6020026020010151815260200190815260200160002060008282540392505081905550808301925050806001019050611c3d565b5080600560008282540392505081905550505b50505050565b611cd2611764565b611cde84848484611ce4565b50505050565b8051825114611d2e57815181516040517f5b059991000000000000000000000000000000000000000000000000000000008152600401611d25929190612e67565b60405180910390fd5b6000611d38610fc0565b905060005b8351811015611f47576000611d5b828661113790919063ffffffff16565b90506000611d72838661113790919063ffffffff16565b9050600073ffffffffffffffffffffffffffffffffffffffff168873ffffffffffffffffffffffffffffffffffffffff1614611e9f57600080600084815260200190815260200160002060008a73ffffffffffffffffffffffffffffffffffffffff1673ffffffffffffffffffffffffffffffffffffffff16815260200190815260200160002054905081811015611e4757888183856040517f03dee4c5000000000000000000000000000000000000000000000000000000008152600401611e3e9493929190613325565b60405180910390fd5b81810360008085815260200190815260200160002060008b73ffffffffffffffffffffffffffffffffffffffff1673ffffffffffffffffffffffffffffffffffffffff16815260200190815260200160002081905550505b600073ffffffffffffffffffffffffffffffffffffffff168773ffffffffffffffffffffffffffffffffffffffff1614611f3a578060008084815260200190815260200160002060008973ffffffffffffffffffffffffffffffffffffffff1673ffffffffffffffffffffffffffffffffffffffff1681526020019081526020016000206000828254611f329190612cf0565b925050819055505b5050806001019050611d3d565b506001835103612006576000611f6760008561113790919063ffffffff16565b90506000611f7f60008561113790919063ffffffff16565b90508573ffffffffffffffffffffffffffffffffffffffff168773ffffffffffffffffffffffffffffffffffffffff168473ffffffffffffffffffffffffffffffffffffffff167fc3d58168c5ae7397731d063d5bbf3d657854427343f4c083240f7aacaa2d0f628585604051611ff7929190612e67565b60405180910390a45050612085565b8373ffffffffffffffffffffffffffffffffffffffff168573ffffffffffffffffffffffffffffffffffffffff168273ffffffffffffffffffffffffffffffffffffffff167f4a39dc06d4c0dbc64b70af90fd698a233a518aa5d07e595d983b8c0526c8f7fb868660405161207c92919061336a565b60405180910390a45b5050505050565b6000604051905090565b600080fd5b600080fd5b600073ffffffffffffffffffffffffffffffffffffffff82169050919050565b60006120cb826120a0565b9050919050565b6120db816120c0565b81146120e657600080fd5b50565b6000813590506120f8816120d2565b92915050565b6000819050919050565b612111816120fe565b811461211c57600080fd5b50565b60008135905061212e81612108565b92915050565b6000806040838503121561214b5761214a612096565b5b6000612159858286016120e9565b925050602061216a8582860161211f565b9150509250929050565b61217d816120fe565b82525050565b60006020820190506121986000830184612174565b92915050565b60007fffffffff0000000000000000000000000000000000000000000000000000000082169050919050565b6121d38161219e565b81146121de57600080fd5b50565b6000813590506121f0816121ca565b92915050565b60006020828403121561220c5761220b612096565b5b600061221a848285016121e1565b91505092915050565b60008115159050919050565b61223881612223565b82525050565b6000602082019050612253600083018461222f565b92915050565b600080fd5b600080fd5b6000601f19601f8301169050919050565b7f4e487b7100000000000000000000000000000000000000000000000000000000600052604160045260246000fd5b6122ac82612263565b810181811067ffffffffffffffff821117156122cb576122ca612274565b5b80604052505050565b60006122de61208c565b90506122ea82826122a3565b919050565b600067ffffffffffffffff82111561230a57612309612274565b5b61231382612263565b9050602081019050919050565b82818337600083830152505050565b600061234261233d846122ef565b6122d4565b90508281526020810184848401111561235e5761235d61225e565b5b612369848285612320565b509392505050565b600082601f83011261238657612385612259565b5b813561239684826020860161232f565b91505092915050565b6000602082840312156123b5576123b4612096565b5b600082013567ffffffffffffffff8111156123d3576123d261209b565b5b6123df84828501612371565b91505092915050565b6000602082840312156123fe576123fd612096565b5b600061240c8482850161211f565b91505092915050565b600081519050919050565b600082825260208201905092915050565b60005b8381101561244f578082015181840152602081019050612434565b60008484015250505050565b600061246682612415565b6124708185612420565b9350612480818560208601612431565b61248981612263565b840191505092915050565b600060208201905081810360008301526124ae818461245b565b905092915050565b600080604083850312156124cd576124cc612096565b5b60006124db8582860161211f565b92505060206124ec8582860161211f565b9150509250929050565b600067ffffffffffffffff82111561251157612510612274565b5b602082029050602081019050919050565b600080fd5b600061253a612535846124f6565b6122d4565b9050808382526020820190506020840283018581111561255d5761255c612522565b5b835b818110156125865780612572888261211f565b84526020840193505060208101905061255f565b5050509392505050565b600082601f8301126125a5576125a4612259565b5b81356125b5848260208601612527565b91505092915050565b600067ffffffffffffffff8211156125d9576125d8612274565b5b6125e282612263565b9050602081019050919050565b60006126026125fd846125be565b6122d4565b90508281526020810184848401111561261e5761261d61225e565b5b612629848285612320565b509392505050565b600082601f83011261264657612645612259565b5b81356126568482602086016125ef565b91505092915050565b6000806000806080858703121561267957612678612096565b5b6000612687878288016120e9565b945050602085013567ffffffffffffffff8111156126a8576126a761209b565b5b6126b487828801612590565b935050604085013567ffffffffffffffff8111156126d5576126d461209b565b5b6126e187828801612590565b925050606085013567ffffffffffffffff8111156127025761270161209b565b5b61270e87828801612631565b91505092959194509250565b600080600080600060a0868803121561273657612735612096565b5b6000612744888289016120e9565b9550506020612755888289016120e9565b945050604086013567ffffffffffffffff8111156127765761277561209b565b5b61278288828901612590565b935050606086013567ffffffffffffffff8111156127a3576127a261209b565b5b6127af88828901612590565b925050608086013567ffffffffffffffff8111156127d0576127cf61209b565b5b6127dc88828901612631565b9150509295509295909350565b600067ffffffffffffffff82111561280457612803612274565b5b602082029050602081019050919050565b6000612828612823846127e9565b6122d4565b9050808382526020820190506020840283018581111561284b5761284a612522565b5b835b81811015612874578061286088826120e9565b84526020840193505060208101905061284d565b5050509392505050565b600082601f83011261289357612892612259565b5b81356128a3848260208601612815565b91505092915050565b600080604083850312156128c3576128c2612096565b5b600083013567ffffffffffffffff8111156128e1576128e061209b565b5b6128ed8582860161287e565b925050602083013567ffffffffffffffff81111561290e5761290d61209b565b5b61291a85828601612590565b9150509250929050565b600081519050919050565b600082825260208201905092915050565b6000819050602082019050919050565b612959816120fe565b82525050565b600061296b8383612950565b60208301905092915050565b6000602082019050919050565b600061298f82612924565b612999818561292f565b93506129a483612940565b8060005b838110156129d55781516129bc888261295f565b97506129c783612977565b9250506001810190506129a8565b5085935050505092915050565b600060208201905081810360008301526129fc8184612984565b905092915050565b612a0d816120c0565b82525050565b6000602082019050612a286000830184612a04565b92915050565b612a3781612223565b8114612a4257600080fd5b50565b600081359050612a5481612a2e565b92915050565b60008060408385031215612a7157612a70612096565b5b6000612a7f858286016120e9565b9250506020612a9085828601612a45565b9150509250929050565b60008060408385031215612ab157612ab0612096565b5b6000612abf858286016120e9565b9250506020612ad0858286016120e9565b9150509250929050565b600080600080600060a08688031215612af657612af5612096565b5b6000612b04888289016120e9565b9550506020612b15888289016120e9565b9450506040612b268882890161211f565b9350506060612b378882890161211f565b925050608086013567ffffffffffffffff811115612b5857612b5761209b565b5b612b6488828901612631565b9150509295509295909350565b600060208284031215612b8757612b86612096565b5b6000612b95848285016120e9565b91505092915050565b7f5552493a206e6f6e206578697374656e74000000000000000000000000000000600082015250565b6000612bd4601183612420565b9150612bdf82612b9e565b602082019050919050565b60006020820190508181036000830152612c0381612bc7565b9050919050565b600081905092915050565b6000612c2082612415565b612c2a8185612c0a565b9350612c3a818560208601612431565b80840191505092915050565b7f2e6a736f6e000000000000000000000000000000000000000000000000000000600082015250565b6000612c7c600583612c0a565b9150612c8782612c46565b600582019050919050565b6000612c9e8285612c15565b9150612caa8284612c15565b9150612cb582612c6f565b91508190509392505050565b7f4e487b7100000000000000000000000000000000000000000000000000000000600052601160045260246000fd5b6000612cfb826120fe565b9150612d06836120fe565b9250828201905080821115612d1e57612d1d612cc1565b5b92915050565b7f6d696e746564206f757400000000000000000000000000000000000000000000600082015250565b6000612d5a600a83612420565b9150612d6582612d24565b602082019050919050565b60006020820190508181036000830152612d8981612d4d565b9050919050565b6000612d9b826120fe565b9150612da6836120fe565b9250828202612db4816120fe565b91508282048414831517612dcb57612dca612cc1565b5b5092915050565b7f6e6f7420656e6f756768206d6f6e657920746f206d696e742065746865720000600082015250565b6000612e08601e83612420565b9150612e1382612dd2565b602082019050919050565b60006020820190508181036000830152612e3781612dfb565b9050919050565b6000604082019050612e536000830185612a04565b612e606020830184612a04565b9392505050565b6000604082019050612e7c6000830185612174565b612e896020830184612174565b9392505050565b7f4e487b7100000000000000000000000000000000000000000000000000000000600052603260045260246000fd5b7f4e487b7100000000000000000000000000000000000000000000000000000000600052602260045260246000fd5b60006002820490506001821680612f0657607f821691505b602082108103612f1957612f18612ebf565b5b50919050565b60008190508160005260206000209050919050565b60006020601f8301049050919050565b600082821b905092915050565b600060088302612f817fffffffffffffffffffffffffffffffffffffffffffffffffffffffffffffffff82612f44565b612f8b8683612f44565b95508019841693508086168417925050509392505050565b6000819050919050565b6000612fc8612fc3612fbe846120fe565b612fa3565b6120fe565b9050919050565b6000819050919050565b612fe283612fad565b612ff6612fee82612fcf565b848454612f51565b825550505050565b600090565b61300b612ffe565b613016818484612fd9565b505050565b5b8181101561303a5761302f600082613003565b60018101905061301c565b5050565b601f82111561307f5761305081612f1f565b61305984612f34565b81016020851015613068578190505b61307c61307485612f34565b83018261301b565b50505b505050565b600082821c905092915050565b60006130a260001984600802613084565b1980831691505092915050565b60006130bb8383613091565b9150826002028217905092915050565b6130d482612415565b67ffffffffffffffff8111156130ed576130ec612274565b5b6130f78254612eee565b61310282828561303e565b600060209050601f8311600181146131355760008415613123578287015190505b61312d85826130af565b865550613195565b601f19841661314386612f1f565b60005b8281101561316b57848901518255600182019150602085019450602081019050613146565b868310156131885784890151613184601f891682613091565b8355505b6001600288020188555050505b505050505050565b7f4e487b7100000000000000000000000000000000000000000000000000000000600052601260045260246000fd5b600081519050919050565b600082825260208201905092915050565b60006131f3826131cc565b6131fd81856131d7565b935061320d818560208601612431565b61321681612263565b840191505092915050565b600060a0820190506132366000830188612a04565b6132436020830187612a04565b6132506040830186612174565b61325d6060830185612174565b818103608083015261326f81846131e8565b90509695505050505050565b60008151905061328a816121ca565b92915050565b6000602082840312156132a6576132a5612096565b5b60006132b48482850161327b565b91505092915050565b600060a0820190506132d26000830188612a04565b6132df6020830187612a04565b81810360408301526132f18186612984565b905081810360608301526133058185612984565b9050818103608083015261331981846131e8565b90509695505050505050565b600060808201905061333a6000830187612a04565b6133476020830186612174565b6133546040830185612174565b6133616060830184612174565b95945050505050565b600060408201905081810360008301526133848185612984565b905081810360208301526133988184612984565b9050939250505056fea264697066735822122019b6ea1c55b3455fb94ffa7e87a0621971fa764e1ec77517600aed40710a357564736f6c63430008180033697066733a2f2f516d55684a4437576d514474634a52337469587968555252594b63414c484d3632734244755062597765753251652f",
  "linkReferences": {},
  "deployedLinkReferences": {}
}