{
  "_format": "hh-sol-artifact-1",
  "contractName": "DAOQuadraticVoting",
  "sourceName": "contracts/practice-erc/DAOQuadraticVoting.sol",
  "abi": [
    {
      "inputs": [
        {
          "internalType": "address",
          "name": "_governanceToken",
          "type": "address"
        }
      ],
      "stateMutability": "nonpayable",
      "type": "constructor"
    },
    {
      "inputs": [
        {
          "internalType": "string",
          "name": "_description",
          "type": "string"
        },
        {
          "internalType": "uint256",
          "name": "_votingPeriod",
          "type": "uint256"
        }
      ],
      "name": "createProposal",
      "outputs": [],
      "stateMutability": "nonpayable",
      "type": "function"
    },
    {
      "inputs": [
        {
          "internalType": "uint256",
          "name": "_proposalId",
          "type": "uint256"
        }
      ],
      "name": "executeProposal",
      "outputs": [],
      "stateMutability": "nonpayable",
      "type": "function"
    },
    {
      "inputs": [],
      "name": "governanceToken",
      "outputs": [
        {
          "internalType": "contract IERC20",
          "name": "",
          "type": "address"
        }
      ],
      "stateMutability": "view",
      "type": "function"
    },
    {
      "inputs": [],
      "name": "proposalCount",
      "outputs": [
        {
          "internalType": "uint256",
          "name": "",
          "type": "uint256"
        }
      ],
      "stateMutability": "view",
      "type": "function"
    },
    {
      "inputs": [
        {
          "internalType": "uint256",
          "name": "",
          "type": "uint256"
        }
      ],
      "name": "proposals",
      "outputs": [
        {
          "internalType": "string",
          "name": "description",
          "type": "string"
        },
        {
          "internalType": "uint256",
          "name": "votesFor",
          "type": "uint256"
        },
        {
          "internalType": "uint256",
          "name": "votesAgainst",
          "type": "uint256"
        },
        {
          "internalType": "uint256",
          "name": "endTime",
          "type": "uint256"
        },
        {
          "internalType": "bool",
          "name": "executed",
          "type": "bool"
        }
      ],
      "stateMutability": "view",
      "type": "function"
    },
    {
      "inputs": [
        {
          "internalType": "uint256",
          "name": "_proposalId",
          "type": "uint256"
        },
        {
          "internalType": "bool",
          "name": "_support",
          "type": "bool"
        },
        {
          "internalType": "uint256",
          "name": "_votes",
          "type": "uint256"
        }
      ],
      "name": "vote",
      "outputs": [],
      "stateMutability": "nonpayable",
      "type": "function"
    },
    {
      "inputs": [
        {
          "internalType": "uint256",
          "name": "",
          "type": "uint256"
        },
        {
          "internalType": "address",
          "name": "",
          "type": "address"
        }
      ],
      "name": "votesUsed",
      "outputs": [
        {
          "internalType": "uint256",
          "name": "",
          "type": "uint256"
        }
      ],
      "stateMutability": "view",
      "type": "function"
    }
  ],
  "bytecode": "0x60806040523480156200001157600080fd5b50604051620013a3380380620013a38339818101604052810190620000379190620000e8565b806000806101000a81548173ffffffffffffffffffffffffffffffffffffffff021916908373ffffffffffffffffffffffffffffffffffffffff160217905550506200011a565b600080fd5b600073ffffffffffffffffffffffffffffffffffffffff82169050919050565b6000620000b08262000083565b9050919050565b620000c281620000a3565b8114620000ce57600080fd5b50565b600081519050620000e281620000b7565b92915050565b6000602082840312156200010157620001006200007e565b5b60006200011184828501620000d1565b91505092915050565b611279806200012a6000396000f3fe608060405234801561001057600080fd5b506004361061007d5760003560e01c80639523730e1161005b5780639523730e146100ee578063d46a5d7e1461011e578063da35c6641461013a578063f96dae0a146101585761007d565b8063013cf08b146100825780630d61b519146100b657806335facf78146100d2575b600080fd5b61009c60048036038101906100979190610758565b610176565b6040516100ad95949392919061083f565b60405180910390f35b6100d060048036038101906100cb9190610758565b610241565b005b6100ec60048036038101906100e791906109ce565b610312565b005b61010860048036038101906101039190610a88565b6103d1565b6040516101159190610ac8565b60405180910390f35b61013860048036038101906101339190610b0f565b6103f6565b005b610142610687565b60405161014f9190610ac8565b60405180910390f35b61016061068d565b60405161016d9190610bc1565b60405180910390f35b600160205280600052604060002060009150905080600001805461019990610c0b565b80601f01602080910402602001604051908101604052809291908181526020018280546101c590610c0b565b80156102125780601f106101e757610100808354040283529160200191610212565b820191906000526020600020905b8154815290600101906020018083116101f557829003601f168201915b5050505050908060010154908060020154908060030154908060040160009054906101000a900460ff16905085565b6000600160008381526020019081526020016000209050806003015442101561029f576040517f08c379a000000000000000000000000000000000000000000000000000000000815260040161029690610c88565b60405180910390fd5b8060040160009054906101000a900460ff16156102f1576040517f08c379a00000000000000000000000000000000000000000000000000000000081526004016102e890610cf4565b60405180910390fd5b60018160040160006101000a81548160ff0219169083151502179055505050565b6003600081548092919061032590610d43565b91905055506040518060a00160405280838152602001600081526020016000815260200182426103559190610d8b565b815260200160001515815250600160006003548152602001908152602001600020600082015181600001908161038b9190610f61565b5060208201518160010155604082015181600201556060820151816003015560808201518160040160006101000a81548160ff0219169083151502179055509050505050565b6002602052816000526040600020602052806000526040600020600091509150505481565b600060016000858152602001908152602001600020905080600301544210610453576040517f08c379a000000000000000000000000000000000000000000000000000000000815260040161044a9061107f565b60405180910390fd5b60008060009054906101000a900473ffffffffffffffffffffffffffffffffffffffff1673ffffffffffffffffffffffffffffffffffffffff166370a08231336040518263ffffffff1660e01b81526004016104af91906110ae565b602060405180830381865afa1580156104cc573d6000803e3d6000fd5b505050506040513d601f19601f820116820180604052508101906104f091906110de565b905082811015610535576040517f08c379a000000000000000000000000000000000000000000000000000000000815260040161052c90611157565b60405180910390fd5b6000610540846106b1565b90506000816002600089815260200190815260200160002060003373ffffffffffffffffffffffffffffffffffffffff1673ffffffffffffffffffffffffffffffffffffffff168152602001908152602001600020546105a09190610d8b565b90506105ab836106b1565b8111156105ed576040517f08c379a00000000000000000000000000000000000000000000000000000000081526004016105e4906111c3565b60405180910390fd5b806002600089815260200190815260200160002060003373ffffffffffffffffffffffffffffffffffffffff1673ffffffffffffffffffffffffffffffffffffffff168152602001908152602001600020819055508515610665578184600101546106589190610d8b565b846001018190555061067e565b8184600201546106759190610d8b565b84600201819055505b50505050505050565b60035481565b60008054906101000a900473ffffffffffffffffffffffffffffffffffffffff1681565b60008060026001846106c39190610d8b565b6106cd9190611212565b90508291505b818110156107085780915060028182856106ed9190611212565b6106f79190610d8b565b6107019190611212565b90506106d3565b50919050565b6000604051905090565b600080fd5b600080fd5b6000819050919050565b61073581610722565b811461074057600080fd5b50565b6000813590506107528161072c565b92915050565b60006020828403121561076e5761076d610718565b5b600061077c84828501610743565b91505092915050565b600081519050919050565b600082825260208201905092915050565b60005b838110156107bf5780820151818401526020810190506107a4565b60008484015250505050565b6000601f19601f8301169050919050565b60006107e782610785565b6107f18185610790565b93506108018185602086016107a1565b61080a816107cb565b840191505092915050565b61081e81610722565b82525050565b60008115159050919050565b61083981610824565b82525050565b600060a082019050818103600083015261085981886107dc565b90506108686020830187610815565b6108756040830186610815565b6108826060830185610815565b61088f6080830184610830565b9695505050505050565b600080fd5b600080fd5b7f4e487b7100000000000000000000000000000000000000000000000000000000600052604160045260246000fd5b6108db826107cb565b810181811067ffffffffffffffff821117156108fa576108f96108a3565b5b80604052505050565b600061090d61070e565b905061091982826108d2565b919050565b600067ffffffffffffffff821115610939576109386108a3565b5b610942826107cb565b9050602081019050919050565b82818337600083830152505050565b600061097161096c8461091e565b610903565b90508281526020810184848401111561098d5761098c61089e565b5b61099884828561094f565b509392505050565b600082601f8301126109b5576109b4610899565b5b81356109c584826020860161095e565b91505092915050565b600080604083850312156109e5576109e4610718565b5b600083013567ffffffffffffffff811115610a0357610a0261071d565b5b610a0f858286016109a0565b9250506020610a2085828601610743565b9150509250929050565b600073ffffffffffffffffffffffffffffffffffffffff82169050919050565b6000610a5582610a2a565b9050919050565b610a6581610a4a565b8114610a7057600080fd5b50565b600081359050610a8281610a5c565b92915050565b60008060408385031215610a9f57610a9e610718565b5b6000610aad85828601610743565b9250506020610abe85828601610a73565b9150509250929050565b6000602082019050610add6000830184610815565b92915050565b610aec81610824565b8114610af757600080fd5b50565b600081359050610b0981610ae3565b92915050565b600080600060608486031215610b2857610b27610718565b5b6000610b3686828701610743565b9350506020610b4786828701610afa565b9250506040610b5886828701610743565b9150509250925092565b6000819050919050565b6000610b87610b82610b7d84610a2a565b610b62565b610a2a565b9050919050565b6000610b9982610b6c565b9050919050565b6000610bab82610b8e565b9050919050565b610bbb81610ba0565b82525050565b6000602082019050610bd66000830184610bb2565b92915050565b7f4e487b7100000000000000000000000000000000000000000000000000000000600052602260045260246000fd5b60006002820490506001821680610c2357607f821691505b602082108103610c3657610c35610bdc565b5b50919050565b7f566f74696e67206973207374696c6c206f6e676f696e67000000000000000000600082015250565b6000610c72601783610790565b9150610c7d82610c3c565b602082019050919050565b60006020820190508181036000830152610ca181610c65565b9050919050565b7f50726f706f73616c20616c726561647920657865637574656400000000000000600082015250565b6000610cde601983610790565b9150610ce982610ca8565b602082019050919050565b60006020820190508181036000830152610d0d81610cd1565b9050919050565b7f4e487b7100000000000000000000000000000000000000000000000000000000600052601160045260246000fd5b6000610d4e82610722565b91507fffffffffffffffffffffffffffffffffffffffffffffffffffffffffffffffff8203610d8057610d7f610d14565b5b600182019050919050565b6000610d9682610722565b9150610da183610722565b9250828201905080821115610db957610db8610d14565b5b92915050565b60008190508160005260206000209050919050565b60006020601f8301049050919050565b600082821b905092915050565b600060088302610e217fffffffffffffffffffffffffffffffffffffffffffffffffffffffffffffffff82610de4565b610e2b8683610de4565b95508019841693508086168417925050509392505050565b6000610e5e610e59610e5484610722565b610b62565b610722565b9050919050565b6000819050919050565b610e7883610e43565b610e8c610e8482610e65565b848454610df1565b825550505050565b600090565b610ea1610e94565b610eac818484610e6f565b505050565b5b81811015610ed057610ec5600082610e99565b600181019050610eb2565b5050565b601f821115610f1557610ee681610dbf565b610eef84610dd4565b81016020851015610efe578190505b610f12610f0a85610dd4565b830182610eb1565b50505b505050565b600082821c905092915050565b6000610f3860001984600802610f1a565b1980831691505092915050565b6000610f518383610f27565b9150826002028217905092915050565b610f6a82610785565b67ffffffffffffffff811115610f8357610f826108a3565b5b610f8d8254610c0b565b610f98828285610ed4565b600060209050601f831160018114610fcb5760008415610fb9578287015190505b610fc38582610f45565b86555061102b565b601f198416610fd986610dbf565b60005b8281101561100157848901518255600182019150602085019450602081019050610fdc565b8683101561101e578489015161101a601f891682610f27565b8355505b6001600288020188555050505b505050505050565b7f566f74696e672068617320656e64656400000000000000000000000000000000600082015250565b6000611069601083610790565b915061107482611033565b602082019050919050565b600060208201905081810360008301526110988161105c565b9050919050565b6110a881610a4a565b82525050565b60006020820190506110c3600083018461109f565b92915050565b6000815190506110d88161072c565b92915050565b6000602082840312156110f4576110f3610718565b5b6000611102848285016110c9565b91505092915050565b7f4e6f7420656e6f75676820746f6b656e73000000000000000000000000000000600082015250565b6000611141601183610790565b915061114c8261110b565b602082019050919050565b6000602082019050818103600083015261117081611134565b9050919050565b7f4578636565647320766f74696e6720706f776572000000000000000000000000600082015250565b60006111ad601483610790565b91506111b882611177565b602082019050919050565b600060208201905081810360008301526111dc816111a0565b9050919050565b7f4e487b7100000000000000000000000000000000000000000000000000000000600052601260045260246000fd5b600061121d82610722565b915061122883610722565b925082611238576112376111e3565b5b82820490509291505056fea26469706673582212209c1c72648850100866d52fee5a6797a34db7cd58375bae0a792aca154ea958b264736f6c63430008180033",
  "linkReferences": {},
  "deployedLinkReferences": {}
}