{
  "_format": "hh-sol-artifact-1",
  "contractName": "DynamicFeeAMM",
  "sourceName": "contracts/practice-erc/DynamicFeesAMM.sol",
  "abi": [
    {
      "inputs": [
        {
          "internalType": "address",
          "name": "_tokenA",
          "type": "address"
        },
        {
          "internalType": "address",
          "name": "_tokenB",
          "type": "address"
        }
      ],
      "stateMutability": "nonpayable",
      "type": "constructor"
    },
    {
      "inputs": [
        {
          "internalType": "uint256",
          "name": "_amountA",
          "type": "uint256"
        },
        {
          "internalType": "uint256",
          "name": "_amountB",
          "type": "uint256"
        }
      ],
      "name": "addLiquidity",
      "outputs": [],
      "stateMutability": "nonpayable",
      "type": "function"
    },
    {
      "inputs": [],
      "name": "baseFeeBps",
      "outputs": [
        {
          "internalType": "uint256",
          "name": "",
          "type": "uint256"
        }
      ],
      "stateMutability": "view",
      "type": "function"
    },
    {
      "inputs": [],
      "name": "calculateDynamicFee",
      "outputs": [
        {
          "internalType": "uint256",
          "name": "",
          "type": "uint256"
        }
      ],
      "stateMutability": "view",
      "type": "function"
    },
    {
      "inputs": [],
      "name": "lastTradeBlock",
      "outputs": [
        {
          "internalType": "uint256",
          "name": "",
          "type": "uint256"
        }
      ],
      "stateMutability": "view",
      "type": "function"
    },
    {
      "inputs": [],
      "name": "maxFeeBps",
      "outputs": [
        {
          "internalType": "uint256",
          "name": "",
          "type": "uint256"
        }
      ],
      "stateMutability": "view",
      "type": "function"
    },
    {
      "inputs": [
        {
          "internalType": "uint256",
          "name": "_shares",
          "type": "uint256"
        }
      ],
      "name": "removeLiquidity",
      "outputs": [],
      "stateMutability": "nonpayable",
      "type": "function"
    },
    {
      "inputs": [],
      "name": "reserveA",
      "outputs": [
        {
          "internalType": "uint256",
          "name": "",
          "type": "uint256"
        }
      ],
      "stateMutability": "view",
      "type": "function"
    },
    {
      "inputs": [],
      "name": "reserveB",
      "outputs": [
        {
          "internalType": "uint256",
          "name": "",
          "type": "uint256"
        }
      ],
      "stateMutability": "view",
      "type": "function"
    },
    {
      "inputs": [
        {
          "internalType": "address",
          "name": "",
          "type": "address"
        }
      ],
      "name": "shares",
      "outputs": [
        {
          "internalType": "uint256",
          "name": "",
          "type": "uint256"
        }
      ],
      "stateMutability": "view",
      "type": "function"
    },
    {
      "inputs": [
        {
          "internalType": "address",
          "name": "_tokenIn",
          "type": "address"
        },
        {
          "internalType": "uint256",
          "name": "_amountIn",
          "type": "uint256"
        }
      ],
      "name": "swap",
      "outputs": [],
      "stateMutability": "nonpayable",
      "type": "function"
    },
    {
      "inputs": [],
      "name": "tokenA",
      "outputs": [
        {
          "internalType": "contract IERC20",
          "name": "",
          "type": "address"
        }
      ],
      "stateMutability": "view",
      "type": "function"
    },
    {
      "inputs": [],
      "name": "tokenB",
      "outputs": [
        {
          "internalType": "contract IERC20",
          "name": "",
          "type": "address"
        }
      ],
      "stateMutability": "view",
      "type": "function"
    },
    {
      "inputs": [],
      "name": "totalShares",
      "outputs": [
        {
          "internalType": "uint256",
          "name": "",
          "type": "uint256"
        }
      ],
      "stateMutability": "view",
      "type": "function"
    }
  ],
  "bytecode": "0x6080604052601e60065560646007553480156200001b57600080fd5b50604051620016bf380380620016bf833981810160405281019062000041919062000134565b816000806101000a81548173ffffffffffffffffffffffffffffffffffffffff021916908373ffffffffffffffffffffffffffffffffffffffff16021790555080600160006101000a81548173ffffffffffffffffffffffffffffffffffffffff021916908373ffffffffffffffffffffffffffffffffffffffff16021790555050506200017b565b600080fd5b600073ffffffffffffffffffffffffffffffffffffffff82169050919050565b6000620000fc82620000cf565b9050919050565b6200010e81620000ef565b81146200011a57600080fd5b50565b6000815190506200012e8162000103565b92915050565b600080604083850312156200014e576200014d620000ca565b5b60006200015e858286016200011d565b925050602062000171858286016200011d565b9150509250929050565b611534806200018b6000396000f3fe608060405234801561001057600080fd5b50600436106100cf5760003560e01c80639c8f9f231161008c578063bf769a3f11610066578063bf769a3f146101de578063ce7c2ac2146101fc578063d004f0f71461022c578063dc5fa6c514610248576100cf565b80639c8f9f23146101885780639cd441da146101a4578063bf5a5940146101c0576100cf565b80630fc63d10146100d457806319e36f3b146100f25780633a98ef39146101105780635f64b55b1461012e57806395267ac71461014c57806396b9062b1461016a575b600080fd5b6100dc610266565b6040516100e99190610ec0565b60405180910390f35b6100fa61028a565b6040516101079190610ef4565b60405180910390f35b610118610290565b6040516101259190610ef4565b60405180910390f35b610136610296565b6040516101439190610ec0565b60405180910390f35b6101546102bc565b6040516101619190610ef4565b60405180910390f35b6101726102c2565b60405161017f9190610ef4565b60405180910390f35b6101a2600480360381019061019d9190610f40565b61032f565b005b6101be60048036038101906101b99190610f6d565b61065d565b005b6101c861093b565b6040516101d59190610ef4565b60405180910390f35b6101e6610941565b6040516101f39190610ef4565b60405180910390f35b61021660048036038101906102119190610feb565b610947565b6040516102239190610ef4565b60405180910390f35b61024660048036038101906102419190611018565b61095f565b005b610250610dde565b60405161025d9190610ef4565b60405180910390f35b60008054906101000a900473ffffffffffffffffffffffffffffffffffffffff1681565b60035481565b60045481565b600160009054906101000a900473ffffffffffffffffffffffffffffffffffffffff1681565b60085481565b600080600854436102d39190611087565b9050606481106102e85760065491505061032c565b60646006546007546102fa9190611087565b8260646103079190611087565b61031191906110bb565b61031b919061112c565b600654610328919061115d565b9150505b90565b60008111801561037e5750600560003373ffffffffffffffffffffffffffffffffffffffff1673ffffffffffffffffffffffffffffffffffffffff168152602001908152602001600020548111155b6103bd576040517f08c379a00000000000000000000000000000000000000000000000000000000081526004016103b4906111ee565b60405180910390fd5b6000600454600254836103d091906110bb565b6103da919061112c565b90506000600454600354846103ef91906110bb565b6103f9919061112c565b905082600560003373ffffffffffffffffffffffffffffffffffffffff1673ffffffffffffffffffffffffffffffffffffffff168152602001908152602001600020600082825461044a9190611087565b9250508190555082600460008282546104639190611087565b92505081905550816002600082825461047c9190611087565b9250508190555080600360008282546104959190611087565b9250508190555060008054906101000a900473ffffffffffffffffffffffffffffffffffffffff1673ffffffffffffffffffffffffffffffffffffffff1663a9059cbb33846040518363ffffffff1660e01b81526004016104f792919061121d565b6020604051808303816000875af1158015610516573d6000803e3d6000fd5b505050506040513d601f19601f8201168201806040525081019061053a919061127e565b610579576040517f08c379a0000000000000000000000000000000000000000000000000000000008152600401610570906112f7565b60405180910390fd5b600160009054906101000a900473ffffffffffffffffffffffffffffffffffffffff1673ffffffffffffffffffffffffffffffffffffffff1663a9059cbb33836040518363ffffffff1660e01b81526004016105d692919061121d565b6020604051808303816000875af11580156105f5573d6000803e3d6000fd5b505050506040513d601f19601f82011682018060405250810190610619919061127e565b610658576040517f08c379a000000000000000000000000000000000000000000000000000000000815260040161064f90611363565b60405180910390fd5b505050565b60008054906101000a900473ffffffffffffffffffffffffffffffffffffffff1673ffffffffffffffffffffffffffffffffffffffff166323b872dd3330856040518463ffffffff1660e01b81526004016106ba93929190611383565b6020604051808303816000875af11580156106d9573d6000803e3d6000fd5b505050506040513d601f19601f820116820180604052508101906106fd919061127e565b61073c576040517f08c379a0000000000000000000000000000000000000000000000000000000008152600401610733906112f7565b60405180910390fd5b600160009054906101000a900473ffffffffffffffffffffffffffffffffffffffff1673ffffffffffffffffffffffffffffffffffffffff166323b872dd3330846040518463ffffffff1660e01b815260040161079b93929190611383565b6020604051808303816000875af11580156107ba573d6000803e3d6000fd5b505050506040513d601f19601f820116820180604052508101906107de919061127e565b61081d576040517f08c379a000000000000000000000000000000000000000000000000000000000815260040161081490611363565b60405180910390fd5b600080600454036108435761083c828461083791906110bb565b610de4565b9050610895565b60006002546004548561085691906110bb565b610860919061112c565b905060006003546004548561087591906110bb565b61087f919061112c565b905080821061088e5780610890565b815b925050505b80600560003373ffffffffffffffffffffffffffffffffffffffff1673ffffffffffffffffffffffffffffffffffffffff16815260200190815260200160002060008282546108e4919061115d565b9250508190555080600460008282546108fd919061115d565b925050819055508260026000828254610916919061115d565b92505081905550816003600082825461092f919061115d565b92505081905550505050565b60065481565b60075481565b60056020528060005260406000206000915090505481565b60008054906101000a900473ffffffffffffffffffffffffffffffffffffffff1673ffffffffffffffffffffffffffffffffffffffff168273ffffffffffffffffffffffffffffffffffffffff161480610a065750600160009054906101000a900473ffffffffffffffffffffffffffffffffffffffff1673ffffffffffffffffffffffffffffffffffffffff168273ffffffffffffffffffffffffffffffffffffffff16145b610a45576040517f08c379a0000000000000000000000000000000000000000000000000000000008152600401610a3c90611406565b60405180910390fd5b60008111610a88576040517f08c379a0000000000000000000000000000000000000000000000000000000008152600401610a7f90611472565b60405180910390fd5b60008060009054906101000a900473ffffffffffffffffffffffffffffffffffffffff1673ffffffffffffffffffffffffffffffffffffffff168373ffffffffffffffffffffffffffffffffffffffff1614905060008060008084610b3657600160009054906101000a900473ffffffffffffffffffffffffffffffffffffffff1660008054906101000a900473ffffffffffffffffffffffffffffffffffffffff16600354600254610b81565b60008054906101000a900473ffffffffffffffffffffffffffffffffffffffff16600160009054906101000a900473ffffffffffffffffffffffffffffffffffffffff166002546003545b93509350935093508373ffffffffffffffffffffffffffffffffffffffff166323b872dd3330896040518463ffffffff1660e01b8152600401610bc693929190611383565b6020604051808303816000875af1158015610be5573d6000803e3d6000fd5b505050506040513d601f19601f82011682018060405250810190610c09919061127e565b610c48576040517f08c379a0000000000000000000000000000000000000000000000000000000008152600401610c3f906114de565b60405180910390fd5b6000612710610c556102c2565b612710610c629190611087565b88610c6d91906110bb565b610c77919061112c565b905060008184610c87919061115d565b8383610c9391906110bb565b610c9d919061112c565b90508473ffffffffffffffffffffffffffffffffffffffff1663a9059cbb33836040518363ffffffff1660e01b8152600401610cda92919061121d565b6020604051808303816000875af1158015610cf9573d6000803e3d6000fd5b505050506040513d601f19601f82011682018060405250810190610d1d919061127e565b610d5c576040517f08c379a0000000000000000000000000000000000000000000000000000000008152600401610d53906114de565b60405180910390fd5b8615610d99578760026000828254610d74919061115d565b925050819055508060036000828254610d8d9190611087565b92505081905550610dcc565b8760036000828254610dab919061115d565b925050819055508060026000828254610dc49190611087565b925050819055505b43600881905550505050505050505050565b60025481565b6000806002600184610df6919061115d565b610e00919061112c565b90508291505b81811015610e3b578091506002818285610e20919061112c565b610e2a919061115d565b610e34919061112c565b9050610e06565b50919050565b600073ffffffffffffffffffffffffffffffffffffffff82169050919050565b6000819050919050565b6000610e86610e81610e7c84610e41565b610e61565b610e41565b9050919050565b6000610e9882610e6b565b9050919050565b6000610eaa82610e8d565b9050919050565b610eba81610e9f565b82525050565b6000602082019050610ed56000830184610eb1565b92915050565b6000819050919050565b610eee81610edb565b82525050565b6000602082019050610f096000830184610ee5565b92915050565b600080fd5b610f1d81610edb565b8114610f2857600080fd5b50565b600081359050610f3a81610f14565b92915050565b600060208284031215610f5657610f55610f0f565b5b6000610f6484828501610f2b565b91505092915050565b60008060408385031215610f8457610f83610f0f565b5b6000610f9285828601610f2b565b9250506020610fa385828601610f2b565b9150509250929050565b6000610fb882610e41565b9050919050565b610fc881610fad565b8114610fd357600080fd5b50565b600081359050610fe581610fbf565b92915050565b60006020828403121561100157611000610f0f565b5b600061100f84828501610fd6565b91505092915050565b6000806040838503121561102f5761102e610f0f565b5b600061103d85828601610fd6565b925050602061104e85828601610f2b565b9150509250929050565b7f4e487b7100000000000000000000000000000000000000000000000000000000600052601160045260246000fd5b600061109282610edb565b915061109d83610edb565b92508282039050818111156110b5576110b4611058565b5b92915050565b60006110c682610edb565b91506110d183610edb565b92508282026110df81610edb565b915082820484148315176110f6576110f5611058565b5b5092915050565b7f4e487b7100000000000000000000000000000000000000000000000000000000600052601260045260246000fd5b600061113782610edb565b915061114283610edb565b925082611152576111516110fd565b5b828204905092915050565b600061116882610edb565b915061117383610edb565b925082820190508082111561118b5761118a611058565b5b92915050565b600082825260208201905092915050565b7f496e76616c696420736861726520616d6f756e74000000000000000000000000600082015250565b60006111d8601483611191565b91506111e3826111a2565b602082019050919050565b60006020820190508181036000830152611207816111cb565b9050919050565b61121781610fad565b82525050565b6000604082019050611232600083018561120e565b61123f6020830184610ee5565b9392505050565b60008115159050919050565b61125b81611246565b811461126657600080fd5b50565b60008151905061127881611252565b92915050565b60006020828403121561129457611293610f0f565b5b60006112a284828501611269565b91505092915050565b7f5472616e73666572206f6620746f6b656e2041206661696c6564000000000000600082015250565b60006112e1601a83611191565b91506112ec826112ab565b602082019050919050565b60006020820190508181036000830152611310816112d4565b9050919050565b7f5472616e73666572206f6620746f6b656e2042206661696c6564000000000000600082015250565b600061134d601a83611191565b915061135882611317565b602082019050919050565b6000602082019050818103600083015261137c81611340565b9050919050565b6000606082019050611398600083018661120e565b6113a5602083018561120e565b6113b26040830184610ee5565b949350505050565b7f496e76616c696420746f6b656e00000000000000000000000000000000000000600082015250565b60006113f0600d83611191565b91506113fb826113ba565b602082019050919050565b6000602082019050818103600083015261141f816113e3565b9050919050565b7f416d6f756e74206d7573742062652067726561746572207468616e2030000000600082015250565b600061145c601d83611191565b915061146782611426565b602082019050919050565b6000602082019050818103600083015261148b8161144f565b9050919050565b7f5472616e73666572206f6620746f6b656e73206661696c656400000000000000600082015250565b60006114c8601983611191565b91506114d382611492565b602082019050919050565b600060208201905081810360008301526114f7816114bb565b905091905056fea264697066735822122004b26db4117ee4d56be1721fca411547633dcf4679e2b0dfb5de8969bb4d14ca64736f6c63430008180033",
  "linkReferences": {},
  "deployedLinkReferences": {}
}