{
  "_format": "hh-sol-artifact-1",
  "contractName": "FractionalNFT",
  "sourceName": "contracts/practice-erc/FractionalNft.sol",
  "abi": [
    {
      "inputs": [],
      "stateMutability": "nonpayable",
      "type": "constructor"
    },
    {
      "inputs": [
        {
          "internalType": "address",
          "name": "spender",
          "type": "address"
        },
        {
          "internalType": "uint256",
          "name": "allowance",
          "type": "uint256"
        },
        {
          "internalType": "uint256",
          "name": "needed",
          "type": "uint256"
        }
      ],
      "name": "ERC20InsufficientAllowance",
      "type": "error"
    },
    {
      "inputs": [
        {
          "internalType": "address",
          "name": "sender",
          "type": "address"
        },
        {
          "internalType": "uint256",
          "name": "balance",
          "type": "uint256"
        },
        {
          "internalType": "uint256",
          "name": "needed",
          "type": "uint256"
        }
      ],
      "name": "ERC20InsufficientBalance",
      "type": "error"
    },
    {
      "inputs": [
        {
          "internalType": "address",
          "name": "approver",
          "type": "address"
        }
      ],
      "name": "ERC20InvalidApprover",
      "type": "error"
    },
    {
      "inputs": [
        {
          "internalType": "address",
          "name": "receiver",
          "type": "address"
        }
      ],
      "name": "ERC20InvalidReceiver",
      "type": "error"
    },
    {
      "inputs": [
        {
          "internalType": "address",
          "name": "sender",
          "type": "address"
        }
      ],
      "name": "ERC20InvalidSender",
      "type": "error"
    },
    {
      "inputs": [
        {
          "internalType": "address",
          "name": "spender",
          "type": "address"
        }
      ],
      "name": "ERC20InvalidSpender",
      "type": "error"
    },
    {
      "inputs": [
        {
          "internalType": "address",
          "name": "owner",
          "type": "address"
        }
      ],
      "name": "OwnableInvalidOwner",
      "type": "error"
    },
    {
      "inputs": [
        {
          "internalType": "address",
          "name": "account",
          "type": "address"
        }
      ],
      "name": "OwnableUnauthorizedAccount",
      "type": "error"
    },
    {
      "anonymous": false,
      "inputs": [
        {
          "indexed": true,
          "internalType": "address",
          "name": "owner",
          "type": "address"
        },
        {
          "indexed": true,
          "internalType": "address",
          "name": "spender",
          "type": "address"
        },
        {
          "indexed": false,
          "internalType": "uint256",
          "name": "value",
          "type": "uint256"
        }
      ],
      "name": "Approval",
      "type": "event"
    },
    {
      "anonymous": false,
      "inputs": [
        {
          "indexed": true,
          "internalType": "address",
          "name": "previousOwner",
          "type": "address"
        },
        {
          "indexed": true,
          "internalType": "address",
          "name": "newOwner",
          "type": "address"
        }
      ],
      "name": "OwnershipTransferred",
      "type": "event"
    },
    {
      "anonymous": false,
      "inputs": [
        {
          "indexed": true,
          "internalType": "address",
          "name": "from",
          "type": "address"
        },
        {
          "indexed": true,
          "internalType": "address",
          "name": "to",
          "type": "address"
        },
        {
          "indexed": false,
          "internalType": "uint256",
          "name": "value",
          "type": "uint256"
        }
      ],
      "name": "Transfer",
      "type": "event"
    },
    {
      "inputs": [],
      "name": "TOTAL_SHARES",
      "outputs": [
        {
          "internalType": "uint256",
          "name": "",
          "type": "uint256"
        }
      ],
      "stateMutability": "view",
      "type": "function"
    },
    {
      "inputs": [
        {
          "internalType": "address",
          "name": "owner",
          "type": "address"
        },
        {
          "internalType": "address",
          "name": "spender",
          "type": "address"
        }
      ],
      "name": "allowance",
      "outputs": [
        {
          "internalType": "uint256",
          "name": "",
          "type": "uint256"
        }
      ],
      "stateMutability": "view",
      "type": "function"
    },
    {
      "inputs": [
        {
          "internalType": "address",
          "name": "spender",
          "type": "address"
        },
        {
          "internalType": "uint256",
          "name": "value",
          "type": "uint256"
        }
      ],
      "name": "approve",
      "outputs": [
        {
          "internalType": "bool",
          "name": "",
          "type": "bool"
        }
      ],
      "stateMutability": "nonpayable",
      "type": "function"
    },
    {
      "inputs": [
        {
          "internalType": "address",
          "name": "account",
          "type": "address"
        }
      ],
      "name": "balanceOf",
      "outputs": [
        {
          "internalType": "uint256",
          "name": "",
          "type": "uint256"
        }
      ],
      "stateMutability": "view",
      "type": "function"
    },
    {
      "inputs": [],
      "name": "buyout",
      "outputs": [],
      "stateMutability": "payable",
      "type": "function"
    },
    {
      "inputs": [],
      "name": "buyoutPrice",
      "outputs": [
        {
          "internalType": "uint256",
          "name": "",
          "type": "uint256"
        }
      ],
      "stateMutability": "view",
      "type": "function"
    },
    {
      "inputs": [],
      "name": "cancelSale",
      "outputs": [],
      "stateMutability": "nonpayable",
      "type": "function"
    },
    {
      "inputs": [],
      "name": "decimals",
      "outputs": [
        {
          "internalType": "uint8",
          "name": "",
          "type": "uint8"
        }
      ],
      "stateMutability": "view",
      "type": "function"
    },
    {
      "inputs": [],
      "name": "forSale",
      "outputs": [
        {
          "internalType": "bool",
          "name": "",
          "type": "bool"
        }
      ],
      "stateMutability": "view",
      "type": "function"
    },
    {
      "inputs": [
        {
          "internalType": "address",
          "name": "_nft",
          "type": "address"
        },
        {
          "internalType": "uint256",
          "name": "_tokenId",
          "type": "uint256"
        },
        {
          "internalType": "uint256",
          "name": "_buyoutPrice",
          "type": "uint256"
        }
      ],
      "name": "initialize",
      "outputs": [],
      "stateMutability": "nonpayable",
      "type": "function"
    },
    {
      "inputs": [],
      "name": "initialized",
      "outputs": [
        {
          "internalType": "bool",
          "name": "",
          "type": "bool"
        }
      ],
      "stateMutability": "view",
      "type": "function"
    },
    {
      "inputs": [],
      "name": "name",
      "outputs": [
        {
          "internalType": "string",
          "name": "",
          "type": "string"
        }
      ],
      "stateMutability": "view",
      "type": "function"
    },
    {
      "inputs": [],
      "name": "nft",
      "outputs": [
        {
          "internalType": "contract IERC721",
          "name": "",
          "type": "address"
        }
      ],
      "stateMutability": "view",
      "type": "function"
    },
    {
      "inputs": [],
      "name": "owner",
      "outputs": [
        {
          "internalType": "address",
          "name": "",
          "type": "address"
        }
      ],
      "stateMutability": "view",
      "type": "function"
    },
    {
      "inputs": [
        {
          "internalType": "uint256",
          "name": "_newBuyoutPrice",
          "type": "uint256"
        }
      ],
      "name": "putUpForSale",
      "outputs": [],
      "stateMutability": "nonpayable",
      "type": "function"
    },
    {
      "inputs": [],
      "name": "renounceOwnership",
      "outputs": [],
      "stateMutability": "nonpayable",
      "type": "function"
    },
    {
      "inputs": [],
      "name": "symbol",
      "outputs": [
        {
          "internalType": "string",
          "name": "",
          "type": "string"
        }
      ],
      "stateMutability": "view",
      "type": "function"
    },
    {
      "inputs": [],
      "name": "tokenId",
      "outputs": [
        {
          "internalType": "uint256",
          "name": "",
          "type": "uint256"
        }
      ],
      "stateMutability": "view",
      "type": "function"
    },
    {
      "inputs": [],
      "name": "totalSupply",
      "outputs": [
        {
          "internalType": "uint256",
          "name": "",
          "type": "uint256"
        }
      ],
      "stateMutability": "view",
      "type": "function"
    },
    {
      "inputs": [
        {
          "internalType": "address",
          "name": "to",
          "type": "address"
        },
        {
          "internalType": "uint256",
          "name": "value",
          "type": "uint256"
        }
      ],
      "name": "transfer",
      "outputs": [
        {
          "internalType": "bool",
          "name": "",
          "type": "bool"
        }
      ],
      "stateMutability": "nonpayable",
      "type": "function"
    },
    {
      "inputs": [
        {
          "internalType": "address",
          "name": "from",
          "type": "address"
        },
        {
          "internalType": "address",
          "name": "to",
          "type": "address"
        },
        {
          "internalType": "uint256",
          "name": "value",
          "type": "uint256"
        }
      ],
      "name": "transferFrom",
      "outputs": [
        {
          "internalType": "bool",
          "name": "",
          "type": "bool"
        }
      ],
      "stateMutability": "nonpayable",
      "type": "function"
    },
    {
      "inputs": [
        {
          "internalType": "address",
          "name": "newOwner",
          "type": "address"
        }
      ],
      "name": "transferOwnership",
      "outputs": [],
      "stateMutability": "nonpayable",
      "type": "function"
    }
  ],
  "bytecode": "0x60806040526000600860006101000a81548160ff0219169083151502179055506000600a60006101000a81548160ff0219169083151502179055503480156200004757600080fd5b50336040518060400160405280600e81526020017f4672616374696f6e616c204e46540000000000000000000000000000000000008152506040518060400160405280600481526020017f464e4654000000000000000000000000000000000000000000000000000000008152508160039081620000c69190620004a8565b508060049081620000d89190620004a8565b505050600073ffffffffffffffffffffffffffffffffffffffff168173ffffffffffffffffffffffffffffffffffffffff1603620001505760006040517f1e4fbdf7000000000000000000000000000000000000000000000000000000008152600401620001479190620005d4565b60405180910390fd5b62000161816200016860201b60201c565b50620005f1565b6000600560009054906101000a900473ffffffffffffffffffffffffffffffffffffffff16905081600560006101000a81548173ffffffffffffffffffffffffffffffffffffffff021916908373ffffffffffffffffffffffffffffffffffffffff1602179055508173ffffffffffffffffffffffffffffffffffffffff168173ffffffffffffffffffffffffffffffffffffffff167f8be0079c531659141344cd1fd0a4f28419497f9722a3daafe3b4186f6b6457e060405160405180910390a35050565b600081519050919050565b7f4e487b7100000000000000000000000000000000000000000000000000000000600052604160045260246000fd5b7f4e487b7100000000000000000000000000000000000000000000000000000000600052602260045260246000fd5b60006002820490506001821680620002b057607f821691505b602082108103620002c657620002c562000268565b5b50919050565b60008190508160005260206000209050919050565b60006020601f8301049050919050565b600082821b905092915050565b600060088302620003307fffffffffffffffffffffffffffffffffffffffffffffffffffffffffffffffff82620002f1565b6200033c8683620002f1565b95508019841693508086168417925050509392505050565b6000819050919050565b6000819050919050565b600062000389620003836200037d8462000354565b6200035e565b62000354565b9050919050565b6000819050919050565b620003a58362000368565b620003bd620003b48262000390565b848454620002fe565b825550505050565b600090565b620003d4620003c5565b620003e18184846200039a565b505050565b5b818110156200040957620003fd600082620003ca565b600181019050620003e7565b5050565b601f82111562000458576200042281620002cc565b6200042d84620002e1565b810160208510156200043d578190505b620004556200044c85620002e1565b830182620003e6565b50505b505050565b600082821c905092915050565b60006200047d600019846008026200045d565b1980831691505092915050565b60006200049883836200046a565b9150826002028217905092915050565b620004b3826200022e565b67ffffffffffffffff811115620004cf57620004ce62000239565b5b620004db825462000297565b620004e88282856200040d565b600060209050601f8311600181146200052057600084156200050b578287015190505b6200051785826200048a565b86555062000587565b601f1984166200053086620002cc565b60005b828110156200055a5784890151825560018201915060208501945060208101905062000533565b868310156200057a578489015162000576601f8916826200046a565b8355505b6001600288020188555050505b505050505050565b600073ffffffffffffffffffffffffffffffffffffffff82169050919050565b6000620005bc826200058f565b9050919050565b620005ce81620005af565b82525050565b6000602082019050620005eb6000830184620005c3565b92915050565b611d3980620006016000396000f3fe6080604052600436106101355760003560e01c8063715018a6116100ab57806395d89b411161006f57806395d89b41146103e9578063a9059cbb14610414578063db1fc87914610451578063dd62ed3e1461047a578063e7e10490146104b7578063f2fde38b146104ce57610135565b8063715018a6146103285780637a1ac61e1461033f5780637f3d06a61461036857806385e3f997146103935780638da5cb5b146103be57610135565b806323b872dd116100fd57806323b872dd14610223578063313ce56714610260578063466ccac01461028b57806347ccca02146102b65780635c4bfa10146102e157806370a08231146102eb57610135565b806306fdde031461013a578063095ea7b314610165578063158ef93e146101a257806317d70f7c146101cd57806318160ddd146101f8575b600080fd5b34801561014657600080fd5b5061014f6104f7565b60405161015c91906115ad565b60405180910390f35b34801561017157600080fd5b5061018c60048036038101906101879190611668565b610589565b60405161019991906116c3565b60405180910390f35b3480156101ae57600080fd5b506101b76105ac565b6040516101c491906116c3565b60405180910390f35b3480156101d957600080fd5b506101e26105bf565b6040516101ef91906116ed565b60405180910390f35b34801561020457600080fd5b5061020d6105c5565b60405161021a91906116ed565b60405180910390f35b34801561022f57600080fd5b5061024a60048036038101906102459190611708565b6105cf565b60405161025791906116c3565b60405180910390f35b34801561026c57600080fd5b506102756105fe565b6040516102829190611777565b60405180910390f35b34801561029757600080fd5b506102a0610607565b6040516102ad91906116c3565b60405180910390f35b3480156102c257600080fd5b506102cb61061a565b6040516102d891906117f1565b60405180910390f35b6102e9610640565b005b3480156102f757600080fd5b50610312600480360381019061030d919061180c565b6108e6565b60405161031f91906116ed565b60405180910390f35b34801561033457600080fd5b5061033d61092e565b005b34801561034b57600080fd5b5061036660048036038101906103619190611839565b610942565b005b34801561037457600080fd5b5061037d610aa9565b60405161038a91906116ed565b60405180910390f35b34801561039f57600080fd5b506103a8610aaf565b6040516103b591906116ed565b60405180910390f35b3480156103ca57600080fd5b506103d3610ab6565b6040516103e0919061189b565b60405180910390f35b3480156103f557600080fd5b506103fe610ae0565b60405161040b91906115ad565b60405180910390f35b34801561042057600080fd5b5061043b60048036038101906104369190611668565b610b72565b60405161044891906116c3565b60405180910390f35b34801561045d57600080fd5b50610478600480360381019061047391906118b6565b610b95565b005b34801561048657600080fd5b506104a1600480360381019061049c91906118e3565b610bc2565b6040516104ae91906116ed565b60405180910390f35b3480156104c357600080fd5b506104cc610c49565b005b3480156104da57600080fd5b506104f560048036038101906104f0919061180c565b610c6e565b005b60606003805461050690611952565b80601f016020809104026020016040519081016040528092919081815260200182805461053290611952565b801561057f5780601f106105545761010080835404028352916020019161057f565b820191906000526020600020905b81548152906001019060200180831161056257829003601f168201915b5050505050905090565b600080610594610cf4565b90506105a1818585610cfc565b600191505092915050565b600860009054906101000a900460ff1681565b60075481565b6000600254905090565b6000806105da610cf4565b90506105e7858285610d0e565b6105f2858585610da2565b60019150509392505050565b60006012905090565b600a60009054906101000a900460ff1681565b600660009054906101000a900473ffffffffffffffffffffffffffffffffffffffff1681565b600a60009054906101000a900460ff1661068f576040517f08c379a0000000000000000000000000000000000000000000000000000000008152600401610686906119cf565b60405180910390fd5b6009543410156106d4576040517f08c379a00000000000000000000000000000000000000000000000000000000081526004016106cb90611a3b565b60405180910390fd5b6000600954346106e49190611a8a565b90506000811115610737573373ffffffffffffffffffffffffffffffffffffffff166108fc829081150290604051600060405180830381858888f19350505050158015610735573d6000803e3d6000fd5b505b60006107416105c5565b905060005b620f424081101561080e57600061075c82610e96565b9050600073ffffffffffffffffffffffffffffffffffffffff168173ffffffffffffffffffffffffffffffffffffffff16146108005760008361079e836108e6565b6009546107ab9190611abe565b6107b59190611b2f565b90508173ffffffffffffffffffffffffffffffffffffffff166108fc829081150290604051600060405180830381858888f193505050501580156107fd573d6000803e3d6000fd5b50505b508080600101915050610746565b50600660009054906101000a900473ffffffffffffffffffffffffffffffffffffffff1673ffffffffffffffffffffffffffffffffffffffff166323b872dd30336007546040518463ffffffff1660e01b815260040161087093929190611b60565b600060405180830381600087803b15801561088a57600080fd5b505af115801561089e573d6000803e3d6000fd5b505050506108ac3082610ed0565b6000600860006101000a81548160ff0219169083151502179055506000600a60006101000a81548160ff0219169083151502179055505050565b60008060008373ffffffffffffffffffffffffffffffffffffffff1673ffffffffffffffffffffffffffffffffffffffff168152602001908152602001600020549050919050565b610936610f52565b6109406000610fd9565b565b61094a610f52565b600860009054906101000a900460ff161561099a576040517f08c379a000000000000000000000000000000000000000000000000000000000815260040161099190611be3565b60405180910390fd5b82600660006101000a81548173ffffffffffffffffffffffffffffffffffffffff021916908373ffffffffffffffffffffffffffffffffffffffff16021790555081600781905550806009819055506001600860006101000a81548160ff021916908315150217905550600660009054906101000a900473ffffffffffffffffffffffffffffffffffffffff1673ffffffffffffffffffffffffffffffffffffffff166323b872dd33306007546040518463ffffffff1660e01b8152600401610a6593929190611b60565b600060405180830381600087803b158015610a7f57600080fd5b505af1158015610a93573d6000803e3d6000fd5b50505050610aa433620f424061109f565b505050565b60095481565b620f424081565b6000600560009054906101000a900473ffffffffffffffffffffffffffffffffffffffff16905090565b606060048054610aef90611952565b80601f0160208091040260200160405190810160405280929190818152602001828054610b1b90611952565b8015610b685780601f10610b3d57610100808354040283529160200191610b68565b820191906000526020600020905b815481529060010190602001808311610b4b57829003601f168201915b5050505050905090565b600080610b7d610cf4565b9050610b8a818585610da2565b600191505092915050565b610b9d610f52565b806009819055506001600a60006101000a81548160ff02191690831515021790555050565b6000600160008473ffffffffffffffffffffffffffffffffffffffff1673ffffffffffffffffffffffffffffffffffffffff16815260200190815260200160002060008373ffffffffffffffffffffffffffffffffffffffff1673ffffffffffffffffffffffffffffffffffffffff16815260200190815260200160002054905092915050565b610c51610f52565b6000600a60006101000a81548160ff021916908315150217905550565b610c76610f52565b600073ffffffffffffffffffffffffffffffffffffffff168173ffffffffffffffffffffffffffffffffffffffff1603610ce85760006040517f1e4fbdf7000000000000000000000000000000000000000000000000000000008152600401610cdf919061189b565b60405180910390fd5b610cf181610fd9565b50565b600033905090565b610d098383836001611121565b505050565b6000610d1a8484610bc2565b90507fffffffffffffffffffffffffffffffffffffffffffffffffffffffffffffffff8114610d9c5781811015610d8c578281836040517ffb8f41b2000000000000000000000000000000000000000000000000000000008152600401610d8393929190611c03565b60405180910390fd5b610d9b84848484036000611121565b5b50505050565b600073ffffffffffffffffffffffffffffffffffffffff168373ffffffffffffffffffffffffffffffffffffffff1603610e145760006040517f96c6fd1e000000000000000000000000000000000000000000000000000000008152600401610e0b919061189b565b60405180910390fd5b600073ffffffffffffffffffffffffffffffffffffffff168273ffffffffffffffffffffffffffffffffffffffff1603610e865760006040517fec442f05000000000000000000000000000000000000000000000000000000008152600401610e7d919061189b565b60405180910390fd5b610e918383836112f8565b505050565b6000808230604051602001610eac929190611ca3565b6040516020818303038152906040528051906020012090508060001c915050919050565b600073ffffffffffffffffffffffffffffffffffffffff168273ffffffffffffffffffffffffffffffffffffffff1603610f425760006040517f96c6fd1e000000000000000000000000000000000000000000000000000000008152600401610f39919061189b565b60405180910390fd5b610f4e826000836112f8565b5050565b610f5a610cf4565b73ffffffffffffffffffffffffffffffffffffffff16610f78610ab6565b73ffffffffffffffffffffffffffffffffffffffff1614610fd757610f9b610cf4565b6040517f118cdaa7000000000000000000000000000000000000000000000000000000008152600401610fce919061189b565b60405180910390fd5b565b6000600560009054906101000a900473ffffffffffffffffffffffffffffffffffffffff16905081600560006101000a81548173ffffffffffffffffffffffffffffffffffffffff021916908373ffffffffffffffffffffffffffffffffffffffff1602179055508173ffffffffffffffffffffffffffffffffffffffff168173ffffffffffffffffffffffffffffffffffffffff167f8be0079c531659141344cd1fd0a4f28419497f9722a3daafe3b4186f6b6457e060405160405180910390a35050565b600073ffffffffffffffffffffffffffffffffffffffff168273ffffffffffffffffffffffffffffffffffffffff16036111115760006040517fec442f05000000000000000000000000000000000000000000000000000000008152600401611108919061189b565b60405180910390fd5b61111d600083836112f8565b5050565b600073ffffffffffffffffffffffffffffffffffffffff168473ffffffffffffffffffffffffffffffffffffffff16036111935760006040517fe602df0500000000000000000000000000000000000000000000000000000000815260040161118a919061189b565b60405180910390fd5b600073ffffffffffffffffffffffffffffffffffffffff168373ffffffffffffffffffffffffffffffffffffffff16036112055760006040517f94280d620000000000000000000000000000000000000000000000000000000081526004016111fc919061189b565b60405180910390fd5b81600160008673ffffffffffffffffffffffffffffffffffffffff1673ffffffffffffffffffffffffffffffffffffffff16815260200190815260200160002060008573ffffffffffffffffffffffffffffffffffffffff1673ffffffffffffffffffffffffffffffffffffffff1681526020019081526020016000208190555080156112f2578273ffffffffffffffffffffffffffffffffffffffff168473ffffffffffffffffffffffffffffffffffffffff167f8c5be1e5ebec7d5bd14f71427d1e84f3dd0314c0f7b2291e5b200ac8c7c3b925846040516112e991906116ed565b60405180910390a35b50505050565b600073ffffffffffffffffffffffffffffffffffffffff168373ffffffffffffffffffffffffffffffffffffffff160361134a57806002600082825461133e9190611ccf565b9250508190555061141d565b60008060008573ffffffffffffffffffffffffffffffffffffffff1673ffffffffffffffffffffffffffffffffffffffff168152602001908152602001600020549050818110156113d6578381836040517fe450d38c0000000000000000000000000000000000000000000000000000000081526004016113cd93929190611c03565b60405180910390fd5b8181036000808673ffffffffffffffffffffffffffffffffffffffff1673ffffffffffffffffffffffffffffffffffffffff16815260200190815260200160002081905550505b600073ffffffffffffffffffffffffffffffffffffffff168273ffffffffffffffffffffffffffffffffffffffff160361146657806002600082825403925050819055506114b3565b806000808473ffffffffffffffffffffffffffffffffffffffff1673ffffffffffffffffffffffffffffffffffffffff168152602001908152602001600020600082825401925050819055505b8173ffffffffffffffffffffffffffffffffffffffff168373ffffffffffffffffffffffffffffffffffffffff167fddf252ad1be2c89b69c2b068fc378daa952ba7f163c4a11628f55a4df523b3ef8360405161151091906116ed565b60405180910390a3505050565b600081519050919050565b600082825260208201905092915050565b60005b8381101561155757808201518184015260208101905061153c565b60008484015250505050565b6000601f19601f8301169050919050565b600061157f8261151d565b6115898185611528565b9350611599818560208601611539565b6115a281611563565b840191505092915050565b600060208201905081810360008301526115c78184611574565b905092915050565b600080fd5b600073ffffffffffffffffffffffffffffffffffffffff82169050919050565b60006115ff826115d4565b9050919050565b61160f816115f4565b811461161a57600080fd5b50565b60008135905061162c81611606565b92915050565b6000819050919050565b61164581611632565b811461165057600080fd5b50565b6000813590506116628161163c565b92915050565b6000806040838503121561167f5761167e6115cf565b5b600061168d8582860161161d565b925050602061169e85828601611653565b9150509250929050565b60008115159050919050565b6116bd816116a8565b82525050565b60006020820190506116d860008301846116b4565b92915050565b6116e781611632565b82525050565b600060208201905061170260008301846116de565b92915050565b600080600060608486031215611721576117206115cf565b5b600061172f8682870161161d565b93505060206117408682870161161d565b925050604061175186828701611653565b9150509250925092565b600060ff82169050919050565b6117718161175b565b82525050565b600060208201905061178c6000830184611768565b92915050565b6000819050919050565b60006117b76117b26117ad846115d4565b611792565b6115d4565b9050919050565b60006117c98261179c565b9050919050565b60006117db826117be565b9050919050565b6117eb816117d0565b82525050565b600060208201905061180660008301846117e2565b92915050565b600060208284031215611822576118216115cf565b5b60006118308482850161161d565b91505092915050565b600080600060608486031215611852576118516115cf565b5b60006118608682870161161d565b935050602061187186828701611653565b925050604061188286828701611653565b9150509250925092565b611895816115f4565b82525050565b60006020820190506118b0600083018461188c565b92915050565b6000602082840312156118cc576118cb6115cf565b5b60006118da84828501611653565b91505092915050565b600080604083850312156118fa576118f96115cf565b5b60006119088582860161161d565b92505060206119198582860161161d565b9150509250929050565b7f4e487b7100000000000000000000000000000000000000000000000000000000600052602260045260246000fd5b6000600282049050600182168061196a57607f821691505b60208210810361197d5761197c611923565b5b50919050565b7f4e4654206e6f7420666f722073616c6500000000000000000000000000000000600082015250565b60006119b9601083611528565b91506119c482611983565b602082019050919050565b600060208201905081810360008301526119e8816119ac565b9050919050565b7f496e73756666696369656e74207061796d656e74000000000000000000000000600082015250565b6000611a25601483611528565b9150611a30826119ef565b602082019050919050565b60006020820190508181036000830152611a5481611a18565b9050919050565b7f4e487b7100000000000000000000000000000000000000000000000000000000600052601160045260246000fd5b6000611a9582611632565b9150611aa083611632565b9250828203905081811115611ab857611ab7611a5b565b5b92915050565b6000611ac982611632565b9150611ad483611632565b9250828202611ae281611632565b91508282048414831517611af957611af8611a5b565b5b5092915050565b7f4e487b7100000000000000000000000000000000000000000000000000000000600052601260045260246000fd5b6000611b3a82611632565b9150611b4583611632565b925082611b5557611b54611b00565b5b828204905092915050565b6000606082019050611b75600083018661188c565b611b82602083018561188c565b611b8f60408301846116de565b949350505050565b7f416c726561647920696e697469616c697a656400000000000000000000000000600082015250565b6000611bcd601383611528565b9150611bd882611b97565b602082019050919050565b60006020820190508181036000830152611bfc81611bc0565b9050919050565b6000606082019050611c18600083018661188c565b611c2560208301856116de565b611c3260408301846116de565b949350505050565b6000819050919050565b611c55611c5082611632565b611c3a565b82525050565b60008160601b9050919050565b6000611c7382611c5b565b9050919050565b6000611c8582611c68565b9050919050565b611c9d611c98826115f4565b611c7a565b82525050565b6000611caf8285611c44565b602082019150611cbf8284611c8c565b6014820191508190509392505050565b6000611cda82611632565b9150611ce583611632565b9250828201905080821115611cfd57611cfc611a5b565b5b9291505056fea264697066735822122030da0f50f6ac6dda1e4dbf56579c790914bc16fcd098335f0c029f21d104a0b364736f6c63430008180033",
  "linkReferences": {},
  "deployedLinkReferences": {}
}